{"abi":[{"type":"constructor","inputs":[],"stateMutability":"nonpayable"},{"type":"function","name":"acceptMatch","inputs":[{"name":"matchId","type":"bytes32","internalType":"bytes32"}],"outputs":[],"stateMutability":"payable"},{"type":"function","name":"accumulatedFees","inputs":[],"outputs":[{"name":"","type":"uint256","internalType":"uint256"}],"stateMutability":"view"},{"type":"function","name":"cancelMatch","inputs":[{"name":"matchId","type":"bytes32","internalType":"bytes32"}],"outputs":[],"stateMutability":"nonpayable"},{"type":"function","name":"createMatch","inputs":[{"name":"matchId","type":"bytes32","internalType":"bytes32"}],"outputs":[],"stateMutability":"payable"},{"type":"function","name":"getMatch","inputs":[{"name":"matchId","type":"bytes32","internalType":"bytes32"}],"outputs":[{"name":"","type":"tuple","internalType":"struct ArenAIWager.Match","components":[{"name":"creator","type":"address","internalType":"address"},{"name":"opponent","type":"address","internalType":"address"},{"name":"wager","type":"uint256","internalType":"uint256"},{"name":"status","type":"uint8","internalType":"enum ArenAIWager.Status"},{"name":"winner","type":"address","internalType":"address"},{"name":"createdAt","type":"uint256","internalType":"uint256"}]}],"stateMutability":"view"},{"type":"function","name":"matchExpiry","inputs":[],"outputs":[{"name":"","type":"uint256","internalType":"uint256"}],"stateMutability":"view"},{"type":"function","name":"matches","inputs":[{"name":"","type":"bytes32","internalType":"bytes32"}],"outputs":[{"name":"creator","type":"address","internalType":"address"},{"name":"opponent","type":"address","internalType":"address"},{"name":"wager","type":"uint256","internalType":"uint256"},{"name":"status","type":"uint8","internalType":"enum ArenAIWager.Status"},{"name":"winner","type":"address","internalType":"address"},{"name":"createdAt","type":"uint256","internalType":"uint256"}],"stateMutability":"view"},{"type":"function","name":"owner","inputs":[],"outputs":[{"name":"","type":"address","internalType":"address"}],"stateMutability":"view"},{"type":"function","name":"platformFeePercent","inputs":[],"outputs":[{"name":"","type":"uint256","internalType":"uint256"}],"stateMutability":"view"},{"type":"function","name":"resolveMatch","inputs":[{"name":"matchId","type":"bytes32","internalType":"bytes32"},{"name":"winner","type":"address","internalType":"address"}],"outputs":[],"stateMutability":"nonpayable"},{"type":"function","name":"withdrawFees","inputs":[],"outputs":[],"stateMutability":"nonpayable"},{"type":"event","name":"MatchAccepted","inputs":[{"name":"matchId","type":"bytes32","indexed":true,"internalType":"bytes32"},{"name":"opponent","type":"address","indexed":true,"internalType":"address"}],"anonymous":false},{"type":"event","name":"MatchCancelled","inputs":[{"name":"matchId","type":"bytes32","indexed":true,"internalType":"bytes32"}],"anonymous":false},{"type":"event","name":"MatchCreated","inputs":[{"name":"matchId","type":"bytes32","indexed":true,"internalType":"bytes32"},{"name":"creator","type":"address","indexed":true,"internalType":"address"},{"name":"wager","type":"uint256","indexed":false,"internalType":"uint256"}],"anonymous":false},{"type":"event","name":"MatchResolved","inputs":[{"name":"matchId","type":"bytes32","indexed":true,"internalType":"bytes32"},{"name":"winner","type":"address","indexed":true,"internalType":"address"},{"name":"payout","type":"uint256","indexed":false,"internalType":"uint256"}],"anonymous":false}],"bytecode":{"object":"0x6080604052601460015562015180600355348015601a575f5ffd5b505f80546001600160a01b03191633179055611096806100395f395ff3fe6080604052600436106100b8575f3560e01c80636df8623c116100715780639fe9ada31161004c5780639fe9ada3146101b9578063c82db8f914610239578063fcc6077d14610258575f5ffd5b80636df8623c1461013f5780638c639a85146101545780638da5cb5b14610169575f5ffd5b8063563bc47b116100a1578063563bc47b146100e5578063587f5ed7146100f857806360ffcc7414610120575f5ffd5b806334b17f45146100bc578063476343ee146100d1575b5f5ffd5b6100cf6100ca366004610e04565b610284565b005b3480156100dc575f5ffd5b506100cf6104c5565b6100cf6100f3366004610e04565b610631565b348015610103575f5ffd5b5061010d60025481565b6040519081526020015b60405180910390f35b34801561012b575f5ffd5b506100cf61013a366004610e1b565b6107ea565b34801561014a575f5ffd5b5061010d60035481565b34801561015f575f5ffd5b5061010d60015481565b348015610174575f5ffd5b505f546101949073ffffffffffffffffffffffffffffffffffffffff1681565b60405173ffffffffffffffffffffffffffffffffffffffff9091168152602001610117565b3480156101c4575f5ffd5b506102276101d3366004610e04565b600460208190525f91825260409091208054600182015460028301546003840154939094015473ffffffffffffffffffffffffffffffffffffffff9283169491831693919260ff8316926101009004169086565b60405161011796959493929190610ec7565b348015610244575f5ffd5b506100cf610253366004610e04565b610af8565b348015610263575f5ffd5b50610277610272366004610e04565b610d1b565b6040516101179190610f2a565b5f34116102d85760405162461bcd60e51b815260206004820152600860248201527f6e6f20776167657200000000000000000000000000000000000000000000000060448201526064015b60405180910390fd5b5f81815260046020819052604082206003015460ff16908111156102fe576102fe610e61565b1461034b5760405162461bcd60e51b815260206004820152600c60248201527f6d6174636820657869737473000000000000000000000000000000000000000060448201526064016102cf565b6040805160c0810182523381525f602080830182815234848601908152600160608601818152608087018690524260a088015288865260049485905296909420855181547fffffffffffffffffffffffff000000000000000000000000000000000000000090811673ffffffffffffffffffffffffffffffffffffffff928316178355935182870180549095169116179092555160028201559351600385018054949594919390927fffffffffffffffffffffffffffffffffffffffffffffffffffffffffffffff0090921691849081111561042957610429610e61565b0217905550608082015160038201805473ffffffffffffffffffffffffffffffffffffffff909216610100027fffffffffffffffffffffff0000000000000000000000000000000000000000ff90921691909117905560a090910151600490910155604051348152339082907f25de49285b70f245a2f2e7522fb0ccfcb06fc314864cb28a2cdb5baddbaf67139060200160405180910390a350565b5f5473ffffffffffffffffffffffffffffffffffffffff16331461052b5760405162461bcd60e51b815260206004820152600960248201527f6e6f74206f776e6572000000000000000000000000000000000000000000000060448201526064016102cf565b6002548061057b5760405162461bcd60e51b815260206004820152600760248201527f6e6f20666565730000000000000000000000000000000000000000000000000060448201526064016102cf565b5f6002819055805460405173ffffffffffffffffffffffffffffffffffffffff9091169083908381818185875af1925050503d805f81146105d7576040519150601f19603f3d011682016040523d82523d5f602084013e6105dc565b606091505b505090508061062d5760405162461bcd60e51b815260206004820152600f60248201527f7769746864726177206661696c6564000000000000000000000000000000000060448201526064016102cf565b5050565b5f8181526004602052604090206001600382015460ff16600481111561065957610659610e61565b146106a65760405162461bcd60e51b815260206004820152600860248201527f6e6f74206f70656e00000000000000000000000000000000000000000000000060448201526064016102cf565b805473ffffffffffffffffffffffffffffffffffffffff16330361070c5760405162461bcd60e51b815260206004820152600f60248201527f63616e7420616363657074206f776e000000000000000000000000000000000060448201526064016102cf565b8060020154341461075f5760405162461bcd60e51b815260206004820152600b60248201527f77726f6e6720776167657200000000000000000000000000000000000000000060448201526064016102cf565b600181018054337fffffffffffffffffffffffff000000000000000000000000000000000000000090911681179091556003820180547fffffffffffffffffffffffffffffffffffffffffffffffffffffffffffffff0016600217905560405183907f65a9c910aea0da688456ff40c6ef943faa43abcd118253c42ebfba4190155518905f90a35050565b5f5473ffffffffffffffffffffffffffffffffffffffff1633146108505760405162461bcd60e51b815260206004820152600960248201527f6e6f74206f776e6572000000000000000000000000000000000000000000000060448201526064016102cf565b5f8281526004602052604090206002600382015460ff16600481111561087857610878610e61565b146108c55760405162461bcd60e51b815260206004820152600c60248201527f6e6f74206163636570746564000000000000000000000000000000000000000060448201526064016102cf565b805473ffffffffffffffffffffffffffffffffffffffff838116911614806109095750600181015473ffffffffffffffffffffffffffffffffffffffff8381169116145b6109555760405162461bcd60e51b815260206004820152600e60248201527f696e76616c69642077696e6e657200000000000000000000000000000000000060448201526064016102cf565b600381810180547fffffffffffffffffffffff0000000000000000000000000000000000000000001661010073ffffffffffffffffffffffffffffffffffffffff8616021790911790556002808201545f916109b19190610fe5565b90505f6064600154836109c49190610fe5565b6109ce9190611002565b90505f6109db828461103a565b90508160025f8282546109ee919061104d565b90915550506040515f9073ffffffffffffffffffffffffffffffffffffffff87169083908381818185875af1925050503d805f8114610a48576040519150601f19603f3d011682016040523d82523d5f602084013e610a4d565b606091505b5050905080610a9e5760405162461bcd60e51b815260206004820152600f60248201527f7472616e73666572206661696c6564000000000000000000000000000000000060448201526064016102cf565b8573ffffffffffffffffffffffffffffffffffffffff16877fc621d3b3ae6f9cc9f11a67aab85919988171f96a9bac8aa5100c7611885f4d2c84604051610ae791815260200190565b60405180910390a350505050505050565b5f8181526004602052604090206001600382015460ff166004811115610b2057610b20610e61565b14610b6d5760405162461bcd60e51b815260206004820152600860248201527f6e6f74206f70656e00000000000000000000000000000000000000000000000060448201526064016102cf565b805473ffffffffffffffffffffffffffffffffffffffff16331480610ba857505f5473ffffffffffffffffffffffffffffffffffffffff1633145b80610bc357506003548160040154610bc0919061104d565b42115b610c0f5760405162461bcd60e51b815260206004820152600b60248201527f63616e742063616e63656c00000000000000000000000000000000000000000060448201526064016102cf565b6003810180547fffffffffffffffffffffffffffffffffffffffffffffffffffffffffffffff00166004179055805460028201546040515f9273ffffffffffffffffffffffffffffffffffffffff1691908381818185875af1925050503d805f8114610c96576040519150601f19603f3d011682016040523d82523d5f602084013e610c9b565b606091505b5050905080610cec5760405162461bcd60e51b815260206004820152600d60248201527f726566756e64206661696c65640000000000000000000000000000000000000060448201526064016102cf565b60405183907f385b367e95b63f352da2c4d675afb41c35f2a4015b1073178876bdc24a1b63b3905f90a2505050565b6040805160c0810182525f80825260208201819052918101829052606081018290526080810182905260a08101919091525f82815260046020818152604092839020835160c081018552815473ffffffffffffffffffffffffffffffffffffffff9081168252600183015416928101929092526002810154938201939093526003830154909291606084019160ff1690811115610dba57610dba610e61565b6004811115610dcb57610dcb610e61565b81526003820154610100900473ffffffffffffffffffffffffffffffffffffffff16602082015260049091015460409091015292915050565b5f60208284031215610e14575f5ffd5b5035919050565b5f5f60408385031215610e2c575f5ffd5b82359150602083013573ffffffffffffffffffffffffffffffffffffffff81168114610e56575f5ffd5b809150509250929050565b7f4e487b71000000000000000000000000000000000000000000000000000000005f52602160045260245ffd5b60058110610ec3577f4e487b71000000000000000000000000000000000000000000000000000000005f52602160045260245ffd5b9052565b73ffffffffffffffffffffffffffffffffffffffff8781168252861660208201526040810185905260c08101610f006060830186610e8e565b73ffffffffffffffffffffffffffffffffffffffff93909316608082015260a00152949350505050565b5f60c08201905073ffffffffffffffffffffffffffffffffffffffff835116825273ffffffffffffffffffffffffffffffffffffffff6020840151166020830152604083015160408301526060830151610f876060840182610e8e565b5073ffffffffffffffffffffffffffffffffffffffff608084015116608083015260a083015160a083015292915050565b7f4e487b71000000000000000000000000000000000000000000000000000000005f52601160045260245ffd5b8082028115828204841417610ffc57610ffc610fb8565b92915050565b5f82611035577f4e487b71000000000000000000000000000000000000000000000000000000005f52601260045260245ffd5b500490565b81810381811115610ffc57610ffc610fb8565b80820180821115610ffc57610ffc610fb856fea26469706673582212209c0f98dd7d82539fa4bad784baf6679a5dcfe499c763a12bc3958afbd67b6d7764736f6c634300081c0033","linkReferences":{}},"methodIdentifiers":{"acceptMatch(bytes32)":"563bc47b","accumulatedFees()":"587f5ed7","cancelMatch(bytes32)":"c82db8f9","createMatch(bytes32)":"34b17f45","getMatch(bytes32)":"fcc6077d","matchExpiry()":"6df8623c","matches(bytes32)":"9fe9ada3","owner()":"8da5cb5b","platformFeePercent()":"8c639a85","resolveMatch(bytes32,address)":"60ffcc74","withdrawFees()":"476343ee"},"id":39}