{"abi":[{"type":"constructor","inputs":[],"stateMutability":"nonpayable"},{"type":"function","name":"acceptMatch","inputs":[{"name":"matchId","type":"bytes32","internalType":"bytes32"}],"outputs":[],"stateMutability":"payable"},{"type":"function","name":"accumulatedFees","inputs":[],"outputs":[{"name":"","type":"uint256","internalType":"uint256"}],"stateMutability":"view"},{"type":"function","name":"cancelMatch","inputs":[{"name":"matchId","type":"bytes32","internalType":"bytes32"}],"outputs":[],"stateMutability":"nonpayable"},{"type":"function","name":"createMatch","inputs":[{"name":"matchId","type":"bytes32","internalType":"bytes32"}],"outputs":[],"stateMutability":"payable"},{"type":"function","name":"getMatch","inputs":[{"name":"matchId","type":"bytes32","internalType":"bytes32"}],"outputs":[{"name":"","type":"tuple","internalType":"struct ArenAIWager.Match","components":[{"name":"creator","type":"address","internalType":"address"},{"name":"opponent","type":"address","internalType":"address"},{"name":"wager","type":"uint256","internalType":"uint256"},{"name":"status","type":"uint8","internalType":"enum ArenAIWager.Status"},{"name":"winner","type":"address","internalType":"address"},{"name":"createdAt","type":"uint256","internalType":"uint256"}]}],"stateMutability":"view"},{"type":"function","name":"matchExpiry","inputs":[],"outputs":[{"name":"","type":"uint256","internalType":"uint256"}],"stateMutability":"view"},{"type":"function","name":"matches","inputs":[{"name":"","type":"bytes32","internalType":"bytes32"}],"outputs":[{"name":"creator","type":"address","internalType":"address"},{"name":"opponent","type":"address","internalType":"address"},{"name":"wager","type":"uint256","internalType":"uint256"},{"name":"status","type":"uint8","internalType":"enum ArenAIWager.Status"},{"name":"winner","type":"address","internalType":"address"},{"name":"createdAt","type":"uint256","internalType":"uint256"}],"stateMutability":"view"},{"type":"function","name":"owner","inputs":[],"outputs":[{"name":"","type":"address","internalType":"address"}],"stateMutability":"view"},{"type":"function","name":"platformFeePercent","inputs":[],"outputs":[{"name":"","type":"uint256","internalType":"uint256"}],"stateMutability":"view"},{"type":"function","name":"resolveMatch","inputs":[{"name":"matchId","type":"bytes32","internalType":"bytes32"},{"name":"winner","type":"address","internalType":"address"}],"outputs":[],"stateMutability":"nonpayable"},{"type":"function","name":"withdrawFees","inputs":[],"outputs":[],"stateMutability":"nonpayable"},{"type":"event","name":"MatchAccepted","inputs":[{"name":"matchId","type":"bytes32","indexed":true,"internalType":"bytes32"},{"name":"opponent","type":"address","indexed":true,"internalType":"address"}],"anonymous":false},{"type":"event","name":"MatchCancelled","inputs":[{"name":"matchId","type":"bytes32","indexed":true,"internalType":"bytes32"}],"anonymous":false},{"type":"event","name":"MatchCreated","inputs":[{"name":"matchId","type":"bytes32","indexed":true,"internalType":"bytes32"},{"name":"creator","type":"address","indexed":true,"internalType":"address"},{"name":"wager","type":"uint256","indexed":false,"internalType":"uint256"}],"anonymous":false},{"type":"event","name":"MatchResolved","inputs":[{"name":"matchId","type":"bytes32","indexed":true,"internalType":"bytes32"},{"name":"winner","type":"address","indexed":true,"internalType":"address"},{"name":"payout","type":"uint256","indexed":false,"internalType":"uint256"}],"anonymous":false}],"bytecode":{"object":"0x6080604052601460015562015180600355348015601a575f5ffd5b50335f5f6101000a81548173ffffffffffffffffffffffffffffffffffffffff021916908373ffffffffffffffffffffffffffffffffffffffff160217905550611c1f806100675f395ff3fe60806040526004361061009b575f3560e01c80636df8623c116100635780636df8623c1461013f5780638c639a85146101695780638da5cb5b146101935780639fe9ada3146101bd578063c82db8f9146101fe578063fcc6077d146102265761009b565b806334b17f451461009f578063476343ee146100bb578063563bc47b146100d1578063587f5ed7146100ed57806360ffcc7414610117575b5f5ffd5b6100b960048036038101906100b49190611272565b610262565b005b3480156100c6575f5ffd5b506100cf610526565b005b6100eb60048036038101906100e69190611272565b6106cf565b005b3480156100f8575f5ffd5b506101016108e6565b60405161010e91906112b5565b60405180910390f35b348015610122575f5ffd5b5061013d60048036038101906101389190611328565b6108ec565b005b34801561014a575f5ffd5b50610153610cb5565b60405161016091906112b5565b60405180910390f35b348015610174575f5ffd5b5061017d610cbb565b60405161018a91906112b5565b60405180910390f35b34801561019e575f5ffd5b506101a7610cc1565b6040516101b49190611375565b60405180910390f35b3480156101c8575f5ffd5b506101e360048036038101906101de9190611272565b610ce5565b6040516101f596959493929190611401565b60405180910390f35b348015610209575f5ffd5b50610224600480360381019061021f9190611272565b610d87565b005b348015610231575f5ffd5b5061024c60048036038101906102479190611272565b61103f565b6040516102599190611506565b60405180910390f35b5f34116102a4576040517f08c379a000000000000000000000000000000000000000000000000000000000815260040161029b90611579565b60405180910390fd5b5f60048111156102b7576102b661138e565b5b60045f8381526020019081526020015f206003015f9054906101000a900460ff1660048111156102ea576102e961138e565b5b1461032a576040517f08c379a0000000000000000000000000000000000000000000000000000000008152600401610321906115e1565b60405180910390fd5b6040518060c001604052803373ffffffffffffffffffffffffffffffffffffffff1681526020015f73ffffffffffffffffffffffffffffffffffffffff168152602001348152602001600160048111156103875761038661138e565b5b81526020015f73ffffffffffffffffffffffffffffffffffffffff1681526020014281525060045f8381526020019081526020015f205f820151815f015f6101000a81548173ffffffffffffffffffffffffffffffffffffffff021916908373ffffffffffffffffffffffffffffffffffffffff1602179055506020820151816001015f6101000a81548173ffffffffffffffffffffffffffffffffffffffff021916908373ffffffffffffffffffffffffffffffffffffffff160217905550604082015181600201556060820151816003015f6101000a81548160ff0219169083600481111561047b5761047a61138e565b5b021790555060808201518160030160016101000a81548173ffffffffffffffffffffffffffffffffffffffff021916908373ffffffffffffffffffffffffffffffffffffffff16021790555060a082015181600401559050503373ffffffffffffffffffffffffffffffffffffffff16817f25de49285b70f245a2f2e7522fb0ccfcb06fc314864cb28a2cdb5baddbaf67133460405161051b91906112b5565b60405180910390a350565b5f5f9054906101000a900473ffffffffffffffffffffffffffffffffffffffff1673ffffffffffffffffffffffffffffffffffffffff163373ffffffffffffffffffffffffffffffffffffffff16146105b4576040517f08c379a00000000000000000000000000000000000000000000000000000000081526004016105ab90611649565b60405180910390fd5b5f60025490505f81116105fc576040517f08c379a00000000000000000000000000000000000000000000000000000000081526004016105f3906116b1565b60405180910390fd5b5f6002819055505f5f5f9054906101000a900473ffffffffffffffffffffffffffffffffffffffff1673ffffffffffffffffffffffffffffffffffffffff1682604051610648906116fc565b5f6040518083038185875af1925050503d805f8114610682576040519150601f19603f3d011682016040523d82523d5f602084013e610687565b606091505b50509050806106cb576040517f08c379a00000000000000000000000000000000000000000000000000000000081526004016106c29061175a565b60405180910390fd5b5050565b5f60045f8381526020019081526020015f209050600160048111156106f7576106f661138e565b5b816003015f9054906101000a900460ff16600481111561071a5761071961138e565b5b1461075a576040517f08c379a0000000000000000000000000000000000000000000000000000000008152600401610751906117c2565b60405180910390fd5b805f015f9054906101000a900473ffffffffffffffffffffffffffffffffffffffff1673ffffffffffffffffffffffffffffffffffffffff163373ffffffffffffffffffffffffffffffffffffffff16036107ea576040517f08c379a00000000000000000000000000000000000000000000000000000000081526004016107e19061182a565b60405180910390fd5b80600201543414610830576040517f08c379a000000000000000000000000000000000000000000000000000000000815260040161082790611892565b60405180910390fd5b33816001015f6101000a81548173ffffffffffffffffffffffffffffffffffffffff021916908373ffffffffffffffffffffffffffffffffffffffff1602179055506002816003015f6101000a81548160ff021916908360048111156108995761089861138e565b5b02179055503373ffffffffffffffffffffffffffffffffffffffff16827f65a9c910aea0da688456ff40c6ef943faa43abcd118253c42ebfba419015551860405160405180910390a35050565b60025481565b5f5f9054906101000a900473ffffffffffffffffffffffffffffffffffffffff1673ffffffffffffffffffffffffffffffffffffffff163373ffffffffffffffffffffffffffffffffffffffff161461097a576040517f08c379a000000000000000000000000000000000000000000000000000000000815260040161097190611649565b60405180910390fd5b5f60045f8481526020019081526020015f209050600260048111156109a2576109a161138e565b5b816003015f9054906101000a900460ff1660048111156109c5576109c461138e565b5b14610a05576040517f08c379a00000000000000000000000000000000000000000000000000000000081526004016109fc906118fa565b60405180910390fd5b805f015f9054906101000a900473ffffffffffffffffffffffffffffffffffffffff1673ffffffffffffffffffffffffffffffffffffffff168273ffffffffffffffffffffffffffffffffffffffff161480610aaf5750806001015f9054906101000a900473ffffffffffffffffffffffffffffffffffffffff1673ffffffffffffffffffffffffffffffffffffffff168273ffffffffffffffffffffffffffffffffffffffff16145b610aee576040517f08c379a0000000000000000000000000000000000000000000000000000000008152600401610ae590611962565b60405180910390fd5b6003816003015f6101000a81548160ff02191690836004811115610b1557610b1461138e565b5b0217905550818160030160016101000a81548173ffffffffffffffffffffffffffffffffffffffff021916908373ffffffffffffffffffffffffffffffffffffffff1602179055505f60028260020154610b6f91906119ad565b90505f606460015483610b8291906119ad565b610b8c9190611a1b565b90505f8183610b9b9190611a4b565b90508160025f828254610bae9190611a7e565b925050819055505f8573ffffffffffffffffffffffffffffffffffffffff1682604051610bda906116fc565b5f6040518083038185875af1925050503d805f8114610c14576040519150601f19603f3d011682016040523d82523d5f602084013e610c19565b606091505b5050905080610c5d576040517f08c379a0000000000000000000000000000000000000000000000000000000008152600401610c5490611afb565b60405180910390fd5b8573ffffffffffffffffffffffffffffffffffffffff16877fc621d3b3ae6f9cc9f11a67aab85919988171f96a9bac8aa5100c7611885f4d2c84604051610ca491906112b5565b60405180910390a350505050505050565b60035481565b60015481565b5f5f9054906101000a900473ffffffffffffffffffffffffffffffffffffffff1681565b6004602052805f5260405f205f91509050805f015f9054906101000a900473ffffffffffffffffffffffffffffffffffffffff1690806001015f9054906101000a900473ffffffffffffffffffffffffffffffffffffffff1690806002015490806003015f9054906101000a900460ff16908060030160019054906101000a900473ffffffffffffffffffffffffffffffffffffffff16908060040154905086565b5f60045f8381526020019081526020015f20905060016004811115610daf57610dae61138e565b5b816003015f9054906101000a900460ff166004811115610dd257610dd161138e565b5b14610e12576040517f08c379a0000000000000000000000000000000000000000000000000000000008152600401610e09906117c2565b60405180910390fd5b805f015f9054906101000a900473ffffffffffffffffffffffffffffffffffffffff1673ffffffffffffffffffffffffffffffffffffffff163373ffffffffffffffffffffffffffffffffffffffff161480610eb957505f5f9054906101000a900473ffffffffffffffffffffffffffffffffffffffff1673ffffffffffffffffffffffffffffffffffffffff163373ffffffffffffffffffffffffffffffffffffffff16145b80610ed457506003548160040154610ed19190611a7e565b42115b610f13576040517f08c379a0000000000000000000000000000000000000000000000000000000008152600401610f0a90611b63565b60405180910390fd5b6004816003015f6101000a81548160ff02191690836004811115610f3a57610f3961138e565b5b02179055505f815f015f9054906101000a900473ffffffffffffffffffffffffffffffffffffffff1673ffffffffffffffffffffffffffffffffffffffff168260020154604051610f8a906116fc565b5f6040518083038185875af1925050503d805f8114610fc4576040519150601f19603f3d011682016040523d82523d5f602084013e610fc9565b606091505b505090508061100d576040517f08c379a000000000000000000000000000000000000000000000000000000000815260040161100490611bcb565b60405180910390fd5b827f385b367e95b63f352da2c4d675afb41c35f2a4015b1073178876bdc24a1b63b360405160405180910390a2505050565b6110476111b7565b60045f8381526020019081526020015f206040518060c00160405290815f82015f9054906101000a900473ffffffffffffffffffffffffffffffffffffffff1673ffffffffffffffffffffffffffffffffffffffff1673ffffffffffffffffffffffffffffffffffffffff168152602001600182015f9054906101000a900473ffffffffffffffffffffffffffffffffffffffff1673ffffffffffffffffffffffffffffffffffffffff1673ffffffffffffffffffffffffffffffffffffffff16815260200160028201548152602001600382015f9054906101000a900460ff16600481111561113a5761113961138e565b5b600481111561114c5761114b61138e565b5b81526020016003820160019054906101000a900473ffffffffffffffffffffffffffffffffffffffff1673ffffffffffffffffffffffffffffffffffffffff1673ffffffffffffffffffffffffffffffffffffffff1681526020016004820154815250509050919050565b6040518060c001604052805f73ffffffffffffffffffffffffffffffffffffffff1681526020015f73ffffffffffffffffffffffffffffffffffffffff1681526020015f81526020015f60048111156112135761121261138e565b5b81526020015f73ffffffffffffffffffffffffffffffffffffffff1681526020015f81525090565b5f5ffd5b5f819050919050565b6112518161123f565b811461125b575f5ffd5b50565b5f8135905061126c81611248565b92915050565b5f602082840312156112875761128661123b565b5b5f6112948482850161125e565b91505092915050565b5f819050919050565b6112af8161129d565b82525050565b5f6020820190506112c85f8301846112a6565b92915050565b5f73ffffffffffffffffffffffffffffffffffffffff82169050919050565b5f6112f7826112ce565b9050919050565b611307816112ed565b8114611311575f5ffd5b50565b5f81359050611322816112fe565b92915050565b5f5f6040838503121561133e5761133d61123b565b5b5f61134b8582860161125e565b925050602061135c85828601611314565b9150509250929050565b61136f816112ed565b82525050565b5f6020820190506113885f830184611366565b92915050565b7f4e487b71000000000000000000000000000000000000000000000000000000005f52602160045260245ffd5b600581106113cc576113cb61138e565b5b50565b5f8190506113dc826113bb565b919050565b5f6113eb826113cf565b9050919050565b6113fb816113e1565b82525050565b5f60c0820190506114145f830189611366565b6114216020830188611366565b61142e60408301876112a6565b61143b60608301866113f2565b6114486080830185611366565b61145560a08301846112a6565b979650505050505050565b611469816112ed565b82525050565b6114788161129d565b82525050565b611487816113e1565b82525050565b60c082015f8201516114a15f850182611460565b5060208201516114b46020850182611460565b5060408201516114c7604085018261146f565b5060608201516114da606085018261147e565b5060808201516114ed6080850182611460565b5060a082015161150060a085018261146f565b50505050565b5f60c0820190506115195f83018461148d565b92915050565b5f82825260208201905092915050565b7f6e6f2077616765720000000000000000000000000000000000000000000000005f82015250565b5f61156360088361151f565b915061156e8261152f565b602082019050919050565b5f6020820190508181035f83015261159081611557565b9050919050565b7f6d617463682065786973747300000000000000000000000000000000000000005f82015250565b5f6115cb600c8361151f565b91506115d682611597565b602082019050919050565b5f6020820190508181035f8301526115f8816115bf565b9050919050565b7f6e6f74206f776e657200000000000000000000000000000000000000000000005f82015250565b5f61163360098361151f565b915061163e826115ff565b602082019050919050565b5f6020820190508181035f83015261166081611627565b9050919050565b7f6e6f2066656573000000000000000000000000000000000000000000000000005f82015250565b5f61169b60078361151f565b91506116a682611667565b602082019050919050565b5f6020820190508181035f8301526116c88161168f565b9050919050565b5f81905092915050565b50565b5f6116e75f836116cf565b91506116f2826116d9565b5f82019050919050565b5f611706826116dc565b9150819050919050565b7f7769746864726177206661696c656400000000000000000000000000000000005f82015250565b5f611744600f8361151f565b915061174f82611710565b602082019050919050565b5f6020820190508181035f83015261177181611738565b9050919050565b7f6e6f74206f70656e0000000000000000000000000000000000000000000000005f82015250565b5f6117ac60088361151f565b91506117b782611778565b602082019050919050565b5f6020820190508181035f8301526117d9816117a0565b9050919050565b7f63616e7420616363657074206f776e00000000000000000000000000000000005f82015250565b5f611814600f8361151f565b915061181f826117e0565b602082019050919050565b5f6020820190508181035f83015261184181611808565b9050919050565b7f77726f6e672077616765720000000000000000000000000000000000000000005f82015250565b5f61187c600b8361151f565b915061188782611848565b602082019050919050565b5f6020820190508181035f8301526118a981611870565b9050919050565b7f6e6f7420616363657074656400000000000000000000000000000000000000005f82015250565b5f6118e4600c8361151f565b91506118ef826118b0565b602082019050919050565b5f6020820190508181035f830152611911816118d8565b9050919050565b7f696e76616c69642077696e6e65720000000000000000000000000000000000005f82015250565b5f61194c600e8361151f565b915061195782611918565b602082019050919050565b5f6020820190508181035f83015261197981611940565b9050919050565b7f4e487b71000000000000000000000000000000000000000000000000000000005f52601160045260245ffd5b5f6119b78261129d565b91506119c28361129d565b92508282026119d08161129d565b915082820484148315176119e7576119e6611980565b5b5092915050565b7f4e487b71000000000000000000000000000000000000000000000000000000005f52601260045260245ffd5b5f611a258261129d565b9150611a308361129d565b925082611a4057611a3f6119ee565b5b828204905092915050565b5f611a558261129d565b9150611a608361129d565b9250828203905081811115611a7857611a77611980565b5b92915050565b5f611a888261129d565b9150611a938361129d565b9250828201905080821115611aab57611aaa611980565b5b92915050565b7f7472616e73666572206661696c656400000000000000000000000000000000005f82015250565b5f611ae5600f8361151f565b9150611af082611ab1565b602082019050919050565b5f6020820190508181035f830152611b1281611ad9565b9050919050565b7f63616e742063616e63656c0000000000000000000000000000000000000000005f82015250565b5f611b4d600b8361151f565b9150611b5882611b19565b602082019050919050565b5f6020820190508181035f830152611b7a81611b41565b9050919050565b7f726566756e64206661696c6564000000000000000000000000000000000000005f82015250565b5f611bb5600d8361151f565b9150611bc082611b81565b602082019050919050565b5f6020820190508181035f830152611be281611ba9565b905091905056fea264697066735822122089552164a9e8c02ad2703c6ac6646d759e5b96aa42183d3cafcc682bf91cfe1964736f6c634300081c0033","linkReferences":{}},"methodIdentifiers":{"acceptMatch(bytes32)":"563bc47b","accumulatedFees()":"587f5ed7","cancelMatch(bytes32)":"c82db8f9","createMatch(bytes32)":"34b17f45","getMatch(bytes32)":"fcc6077d","matchExpiry()":"6df8623c","matches(bytes32)":"9fe9ada3","owner()":"8da5cb5b","platformFeePercent()":"8c639a85","resolveMatch(bytes32,address)":"60ffcc74","withdrawFees()":"476343ee"},"id":19}