{"abi":[{"type":"constructor","inputs":[],"stateMutability":"nonpayable"},{"type":"receive","stateMutability":"payable"},{"type":"function","name":"getAllGyms","inputs":[],"outputs":[{"name":"","type":"address[]","internalType":"address[]"}],"stateMutability":"view"},{"type":"function","name":"getGym","inputs":[{"name":"trainer","type":"address","internalType":"address"}],"outputs":[{"name":"name","type":"string","internalType":"string"},{"name":"gymType","type":"string","internalType":"string"},{"name":"archetype","type":"string","internalType":"string"},{"name":"battleCry","type":"string","internalType":"string"},{"name":"pokemon","type":"tuple[3]","internalType":"struct GymRegistry.Pokemon[3]","components":[{"name":"species","type":"string","internalType":"string"},{"name":"type1","type":"string","internalType":"string"},{"name":"type2","type":"string","internalType":"string"}]},{"name":"timestamp","type":"uint256","internalType":"uint256"}],"stateMutability":"view"},{"type":"function","name":"gymCount","inputs":[],"outputs":[{"name":"","type":"uint256","internalType":"uint256"}],"stateMutability":"view"},{"type":"function","name":"isRegistered","inputs":[{"name":"trainer","type":"address","internalType":"address"}],"outputs":[{"name":"","type":"bool","internalType":"bool"}],"stateMutability":"view"},{"type":"function","name":"owner","inputs":[],"outputs":[{"name":"","type":"address","internalType":"address"}],"stateMutability":"view"},{"type":"function","name":"registerGym","inputs":[{"name":"name","type":"string","internalType":"string"},{"name":"gymType","type":"string","internalType":"string"},{"name":"archetype","type":"string","internalType":"string"},{"name":"battleCry","type":"string","internalType":"string"},{"name":"pokemonData","type":"tuple[3]","internalType":"struct GymRegistry.Pokemon[3]","components":[{"name":"species","type":"string","internalType":"string"},{"name":"type1","type":"string","internalType":"string"},{"name":"type2","type":"string","internalType":"string"}]}],"outputs":[],"stateMutability":"payable"},{"type":"function","name":"registerGymFor","inputs":[{"name":"trainer","type":"address","internalType":"address"},{"name":"name","type":"string","internalType":"string"},{"name":"gymType","type":"string","internalType":"string"},{"name":"archetype","type":"string","internalType":"string"},{"name":"battleCry","type":"string","internalType":"string"},{"name":"pokemonData","type":"tuple[3]","internalType":"struct GymRegistry.Pokemon[3]","components":[{"name":"species","type":"string","internalType":"string"},{"name":"type1","type":"string","internalType":"string"},{"name":"type2","type":"string","internalType":"string"}]}],"outputs":[],"stateMutability":"payable"},{"type":"function","name":"registrationFee","inputs":[],"outputs":[{"name":"","type":"uint256","internalType":"uint256"}],"stateMutability":"view"},{"type":"function","name":"setRegistrationFee","inputs":[{"name":"newFee","type":"uint256","internalType":"uint256"}],"outputs":[],"stateMutability":"nonpayable"},{"type":"function","name":"withdrawFees","inputs":[],"outputs":[],"stateMutability":"nonpayable"},{"type":"event","name":"FeeCollected","inputs":[{"name":"trainer","type":"address","indexed":true,"internalType":"address"},{"name":"amount","type":"uint256","indexed":false,"internalType":"uint256"}],"anonymous":false},{"type":"event","name":"GymRegistered","inputs":[{"name":"trainer","type":"address","indexed":true,"internalType":"address"},{"name":"name","type":"string","indexed":false,"internalType":"string"},{"name":"gymType","type":"string","indexed":false,"internalType":"string"}],"anonymous":false},{"type":"event","name":"GymUpdated","inputs":[{"name":"trainer","type":"address","indexed":true,"internalType":"address"},{"name":"name","type":"string","indexed":false,"internalType":"string"},{"name":"gymType","type":"string","indexed":false,"internalType":"string"}],"anonymous":false}],"bytecode":{"object":"0x6080604052670de0b6b3a7640000600355348015601a575f5ffd5b50600280546001600160a01b031916331790556115ce8061003a5f395ff3fe6080604052600436106100b0575f3560e01c8063c320c72711610066578063d4b5f5161161004c578063d4b5f51614610205578063da9f67fe14610218578063f814ef8614610239575f5ffd5b8063c320c7271461018f578063c3c5a547146101ae575f5ffd5b8063476343ee11610096578063476343ee146101145780635696091e1461012a5780638da5cb5b1461013e575f5ffd5b806314c44e09146100bb5780631e1d8286146100e3575f5ffd5b366100b757005b5f5ffd5b3480156100c6575f5ffd5b506100d060035481565b6040519081526020015b60405180910390f35b3480156100ee575f5ffd5b506101026100fd366004610da9565b61024c565b6040516100da96959493929190610e15565b34801561011f575f5ffd5b50610128610761565b005b348015610135575f5ffd5b506001546100d0565b348015610149575f5ffd5b5060025461016a9073ffffffffffffffffffffffffffffffffffffffff1681565b60405173ffffffffffffffffffffffffffffffffffffffff90911681526020016100da565b34801561019a575f5ffd5b506101286101a9366004610efc565b610915565b3480156101b9575f5ffd5b506101f56101c8366004610da9565b73ffffffffffffffffffffffffffffffffffffffff165f908152602081905260409020600e015460ff1690565b60405190151581526020016100da565b610128610213366004610f6e565b61099b565b348015610223575f5ffd5b5061022c6109b8565b6040516100da9190611064565b6101286102473660046110bc565b610a25565b60608060608061025a610d38565b73ffffffffffffffffffffffffffffffffffffffff86165f908152602081905260408120600e015460ff166102f0576040517f08c379a000000000000000000000000000000000000000000000000000000000815260206004820152601260248201527f47796d206e6f742072656769737465726564000000000000000000000000000060448201526064015b60405180910390fd5b73ffffffffffffffffffffffffffffffffffffffff87165f908152602081905260409020600d81015481548291600183019160028401916003850191600486019190869061033d906111c3565b80601f0160208091040260200160405190810160405280929190818152602001828054610369906111c3565b80156103b45780601f1061038b576101008083540402835291602001916103b4565b820191905f5260205f20905b81548152906001019060200180831161039757829003601f168201915b505050505095508480546103c7906111c3565b80601f01602080910402602001604051908101604052809291908181526020018280546103f3906111c3565b801561043e5780601f106104155761010080835404028352916020019161043e565b820191905f5260205f20905b81548152906001019060200180831161042157829003601f168201915b50505050509450838054610451906111c3565b80601f016020809104026020016040519081016040528092919081815260200182805461047d906111c3565b80156104c85780601f1061049f576101008083540402835291602001916104c8565b820191905f5260205f20905b8154815290600101906020018083116104ab57829003601f168201915b505050505093508280546104db906111c3565b80601f0160208091040260200160405190810160405280929190818152602001828054610507906111c3565b80156105525780601f1061052957610100808354040283529160200191610552565b820191905f5260205f20905b81548152906001019060200180831161053557829003601f168201915b50506040805160608101909152939650859250600391505f9050835b82821015610745578382600302016040518060600160405290815f82018054610596906111c3565b80601f01602080910402602001604051908101604052809291908181526020018280546105c2906111c3565b801561060d5780601f106105e45761010080835404028352916020019161060d565b820191905f5260205f20905b8154815290600101906020018083116105f057829003601f168201915b50505050508152602001600182018054610626906111c3565b80601f0160208091040260200160405190810160405280929190818152602001828054610652906111c3565b801561069d5780601f106106745761010080835404028352916020019161069d565b820191905f5260205f20905b81548152906001019060200180831161068057829003601f168201915b505050505081526020016002820180546106b6906111c3565b80601f01602080910402602001604051908101604052809291908181526020018280546106e2906111c3565b801561072d5780601f106107045761010080835404028352916020019161072d565b820191905f5260205f20905b81548152906001019060200180831161071057829003601f168201915b5050505050815250508152602001906001019061056e565b5050505091509650965096509650965096505091939550919395565b60025473ffffffffffffffffffffffffffffffffffffffff1633146107e2576040517f08c379a000000000000000000000000000000000000000000000000000000000815260206004820152600960248201527f4e6f74206f776e6572000000000000000000000000000000000000000000000060448201526064016102e7565b478061084a576040517f08c379a000000000000000000000000000000000000000000000000000000000815260206004820152601360248201527f4e6f206665657320746f2077697468647261770000000000000000000000000060448201526064016102e7565b6002546040515f9173ffffffffffffffffffffffffffffffffffffffff169083908381818185875af1925050503d805f81146108a1576040519150601f19603f3d011682016040523d82523d5f602084013e6108a6565b606091505b5050905080610911576040517f08c379a000000000000000000000000000000000000000000000000000000000815260206004820152600f60248201527f5472616e73666572206661696c6564000000000000000000000000000000000060448201526064016102e7565b5050565b60025473ffffffffffffffffffffffffffffffffffffffff163314610996576040517f08c379a000000000000000000000000000000000000000000000000000000000815260206004820152600960248201527f4e6f74206f776e6572000000000000000000000000000000000000000000000060448201526064016102e7565b600355565b6109ad338a8a8a8a8a8a8a8a8a610a43565b505050505050505050565b60606001805480602002602001604051908101604052809291908181526020018280548015610a1b57602002820191905f5260205f20905b815473ffffffffffffffffffffffffffffffffffffffff1681526001909101906020018083116109f0575b5050505050905090565b610a378a8a8a8a8a8a8a8a8a8a610a43565b50505050505050505050565b73ffffffffffffffffffffffffffffffffffffffff8a165f908152602081905260409020600e015460ff1680610b3057600354341015610adf576040517f08c379a000000000000000000000000000000000000000000000000000000000815260206004820152601d60248201527f496e73756666696369656e7420726567697374726174696f6e2066656500000060448201526064016102e7565b8a73ffffffffffffffffffffffffffffffffffffffff167f06c5efeff5c320943d265dc4e5f1af95ad523555ce0c1957e367dda5514572df34604051610b2791815260200190565b60405180910390a25b73ffffffffffffffffffffffffffffffffffffffff8b165f90815260208190526040902080610b608b8d8361128d565b5060018101610b70898b8361128d565b5060028101610b8087898361128d565b5060038101610b9085878361128d565b50610b9b8380611365565b60048201610ba98282611402565b50610bb990506020840184611365565b60078201610bc78282611402565b50610bd790506040840184611365565b600a8201610be58282611402565b505042600d82015581610cd557600e810180547fffffffffffffffffffffffffffffffffffffffffffffffffffffffffffffff00166001908117909155805480820182555f919091527fb10e2d527612073b26eecdfd717e6a320cf44b4afac2b0732d9fcbe2b7fa0cf601805473ffffffffffffffffffffffffffffffffffffffff8e167fffffffffffffffffffffffff000000000000000000000000000000000000000090911681179091556040517f7913b09be6a5514bb306763d88964313596e2165b0bdacc5e3a5e374c094f82e90610cc8908e908e908e908e90611567565b60405180910390a2610d2a565b8b73ffffffffffffffffffffffffffffffffffffffff167f63b2c022a48fec013b4aa91437e8f6cccbcc53e7b78e872c8e98055158d5ead28c8c8c8c604051610d219493929190611567565b60405180910390a25b505050505050505050505050565b60405180606001604052806003905b610d6b60405180606001604052806060815260200160608152602001606081525090565b815260200190600190039081610d475790505090565b803573ffffffffffffffffffffffffffffffffffffffff81168114610da4575f5ffd5b919050565b5f60208284031215610db9575f5ffd5b610dc282610d81565b9392505050565b5f81518084528060208401602086015e5f6020828601015260207fffffffffffffffffffffffffffffffffffffffffffffffffffffffffffffffe0601f83011685010191505092915050565b60c081525f610e2760c0830189610dc9565b8281036020840152610e398189610dc9565b90508281036040840152610e4d8188610dc9565b90508281036060840152610e618187610dc9565b838103608085015290508060608101865f5b6003811015610ee35784830384528151805160608552610e966060860182610dc9565b905060208201518582036020870152610eaf8282610dc9565b915050604082015191508481036040860152610ecb8183610dc9565b60209687019690955093909301925050600101610e73565b50508093505050508260a0830152979650505050505050565b5f60208284031215610f0c575f5ffd5b5035919050565b5f5f83601f840112610f23575f5ffd5b50813567ffffffffffffffff811115610f3a575f5ffd5b602083019150836020828501011115610f51575f5ffd5b9250929050565b8060608101831015610f68575f5ffd5b92915050565b5f5f5f5f5f5f5f5f5f60a08a8c031215610f86575f5ffd5b893567ffffffffffffffff811115610f9c575f5ffd5b610fa88c828d01610f13565b909a5098505060208a013567ffffffffffffffff811115610fc7575f5ffd5b610fd38c828d01610f13565b90985096505060408a013567ffffffffffffffff811115610ff2575f5ffd5b610ffe8c828d01610f13565b90965094505060608a013567ffffffffffffffff81111561101d575f5ffd5b6110298c828d01610f13565b90945092505060808a013567ffffffffffffffff811115611048575f5ffd5b6110548c828d01610f58565b9150509295985092959850929598565b602080825282518282018190525f918401906040840190835b818110156110b157835173ffffffffffffffffffffffffffffffffffffffff1683526020938401939092019160010161107d565b509095945050505050565b5f5f5f5f5f5f5f5f5f5f60c08b8d0312156110d5575f5ffd5b6110de8b610d81565b995060208b013567ffffffffffffffff8111156110f9575f5ffd5b6111058d828e01610f13565b909a5098505060408b013567ffffffffffffffff811115611124575f5ffd5b6111308d828e01610f13565b90985096505060608b013567ffffffffffffffff81111561114f575f5ffd5b61115b8d828e01610f13565b90965094505060808b013567ffffffffffffffff81111561117a575f5ffd5b6111868d828e01610f13565b90945092505060a08b013567ffffffffffffffff8111156111a5575f5ffd5b6111b18d828e01610f58565b9150509295989b9194979a5092959850565b600181811c908216806111d757607f821691505b60208210810361120e577f4e487b71000000000000000000000000000000000000000000000000000000005f52602260045260245ffd5b50919050565b7f4e487b71000000000000000000000000000000000000000000000000000000005f52604160045260245ffd5b601f82111561128857805f5260205f20601f840160051c810160208510156112665750805b601f840160051c820191505b81811015611285575f8155600101611272565b50505b505050565b67ffffffffffffffff8311156112a5576112a5611214565b6112b9836112b383546111c3565b83611241565b5f601f8411600181146112ea575f85156112d35750838201355b5f19600387901b1c1916600186901b178355611285565b5f838152602081207fffffffffffffffffffffffffffffffffffffffffffffffffffffffffffffffe08716915b828110156113375786850135825560209485019460019092019101611317565b5086821015611353575f1960f88860031b161c19848701351681555b505060018560011b0183555050505050565b5f82357fffffffffffffffffffffffffffffffffffffffffffffffffffffffffffffffa1833603018112611397575f5ffd5b9190910192915050565b5f5f83357fffffffffffffffffffffffffffffffffffffffffffffffffffffffffffffffe18436030181126113d4575f5ffd5b83018035915067ffffffffffffffff8211156113ee575f5ffd5b602001915036819003821315610f51575f5ffd5b61140c82836113a1565b67ffffffffffffffff81111561142457611424611214565b6114388161143285546111c3565b85611241565b5f601f821160018114611469575f83156114525750838201355b5f19600385901b1c1916600184901b1785556114de565b5f858152602081207fffffffffffffffffffffffffffffffffffffffffffffffffffffffffffffffe08516915b828110156114b65786850135825560209485019460019092019101611496565b50848210156114d2575f1960f88660031b161c19848701351681555b505060018360011b0185555b505050506114ef60208301836113a1565b6114fd81836001860161128d565b505061150c60408301836113a1565b61151a81836002860161128d565b50505050565b81835281816020850137505f602082840101525f60207fffffffffffffffffffffffffffffffffffffffffffffffffffffffffffffffe0601f840116840101905092915050565b604081525f61157a604083018688611520565b828103602084015261158d818587611520565b97965050505050505056fea2646970667358221220acf7e3e1d2c93df968fe8b574eab740585eebe281f5eb558f12357b6766c7c4b64736f6c634300081c0033","linkReferences":{}},"methodIdentifiers":{"getAllGyms()":"da9f67fe","getGym(address)":"1e1d8286","gymCount()":"5696091e","isRegistered(address)":"c3c5a547","owner()":"8da5cb5b","registerGym(string,string,string,string,(string,string,string)[3])":"d4b5f516","registerGymFor(address,string,string,string,string,(string,string,string)[3])":"f814ef86","registrationFee()":"14c44e09","setRegistrationFee(uint256)":"c320c727","withdrawFees()":"476343ee"},"id":43}