{"abi":[{"type":"constructor","inputs":[],"stateMutability":"nonpayable"},{"type":"receive","stateMutability":"payable"},{"type":"function","name":"getAllGyms","inputs":[],"outputs":[{"name":"","type":"address[]","internalType":"address[]"}],"stateMutability":"view"},{"type":"function","name":"getGym","inputs":[{"name":"trainer","type":"address","internalType":"address"}],"outputs":[{"name":"name","type":"string","internalType":"string"},{"name":"gymType","type":"string","internalType":"string"},{"name":"archetype","type":"string","internalType":"string"},{"name":"battleCry","type":"string","internalType":"string"},{"name":"pokemon","type":"tuple[3]","internalType":"struct GymRegistry.Pokemon[3]","components":[{"name":"species","type":"string","internalType":"string"},{"name":"type1","type":"string","internalType":"string"},{"name":"type2","type":"string","internalType":"string"}]},{"name":"timestamp","type":"uint256","internalType":"uint256"}],"stateMutability":"view"},{"type":"function","name":"gymCount","inputs":[],"outputs":[{"name":"","type":"uint256","internalType":"uint256"}],"stateMutability":"view"},{"type":"function","name":"isRegistered","inputs":[{"name":"trainer","type":"address","internalType":"address"}],"outputs":[{"name":"","type":"bool","internalType":"bool"}],"stateMutability":"view"},{"type":"function","name":"owner","inputs":[],"outputs":[{"name":"","type":"address","internalType":"address"}],"stateMutability":"view"},{"type":"function","name":"registerGym","inputs":[{"name":"name","type":"string","internalType":"string"},{"name":"gymType","type":"string","internalType":"string"},{"name":"archetype","type":"string","internalType":"string"},{"name":"battleCry","type":"string","internalType":"string"},{"name":"pokemonData","type":"tuple[3]","internalType":"struct GymRegistry.Pokemon[3]","components":[{"name":"species","type":"string","internalType":"string"},{"name":"type1","type":"string","internalType":"string"},{"name":"type2","type":"string","internalType":"string"}]}],"outputs":[],"stateMutability":"payable"},{"type":"function","name":"registerGymFor","inputs":[{"name":"trainer","type":"address","internalType":"address"},{"name":"name","type":"string","internalType":"string"},{"name":"gymType","type":"string","internalType":"string"},{"name":"archetype","type":"string","internalType":"string"},{"name":"battleCry","type":"string","internalType":"string"},{"name":"pokemonData","type":"tuple[3]","internalType":"struct GymRegistry.Pokemon[3]","components":[{"name":"species","type":"string","internalType":"string"},{"name":"type1","type":"string","internalType":"string"},{"name":"type2","type":"string","internalType":"string"}]}],"outputs":[],"stateMutability":"payable"},{"type":"function","name":"registrationFee","inputs":[],"outputs":[{"name":"","type":"uint256","internalType":"uint256"}],"stateMutability":"view"},{"type":"function","name":"setRegistrationFee","inputs":[{"name":"newFee","type":"uint256","internalType":"uint256"}],"outputs":[],"stateMutability":"nonpayable"},{"type":"function","name":"withdrawFees","inputs":[],"outputs":[],"stateMutability":"nonpayable"},{"type":"event","name":"FeeCollected","inputs":[{"name":"trainer","type":"address","indexed":true,"internalType":"address"},{"name":"amount","type":"uint256","indexed":false,"internalType":"uint256"}],"anonymous":false},{"type":"event","name":"GymRegistered","inputs":[{"name":"trainer","type":"address","indexed":true,"internalType":"address"},{"name":"name","type":"string","indexed":false,"internalType":"string"},{"name":"gymType","type":"string","indexed":false,"internalType":"string"}],"anonymous":false},{"type":"event","name":"GymUpdated","inputs":[{"name":"trainer","type":"address","indexed":true,"internalType":"address"},{"name":"name","type":"string","indexed":false,"internalType":"string"},{"name":"gymType","type":"string","indexed":false,"internalType":"string"}],"anonymous":false}],"bytecode":{"object":"0x6080604052670de0b6b3a7640000600355348015601a575f5ffd5b503360025f6101000a81548173ffffffffffffffffffffffffffffffffffffffff021916908373ffffffffffffffffffffffffffffffffffffffff160217905550611d56806100685f395ff3fe608060405260043610610094575f3560e01c8063c320c72711610058578063c320c72714610174578063c3c5a5471461019c578063d4b5f516146101d8578063da9f67fe146101f4578063f814ef861461021e5761009b565b806314c44e091461009f5780631e1d8286146100c9578063476343ee1461010a5780635696091e146101205780638da5cb5b1461014a5761009b565b3661009b57005b5f5ffd5b3480156100aa575f5ffd5b506100b361023a565b6040516100c09190610ef3565b60405180910390f35b3480156100d4575f5ffd5b506100ef60048036038101906100ea9190610f6e565b610240565b6040516101019695949392919061115b565b60405180910390f35b348015610115575f5ffd5b5061011e610763565b005b34801561012b575f5ffd5b50610134610905565b6040516101419190610ef3565b60405180910390f35b348015610155575f5ffd5b5061015e610911565b60405161016b91906111ec565b60405180910390f35b34801561017f575f5ffd5b5061019a6004803603810190610195919061122f565b610936565b005b3480156101a7575f5ffd5b506101c260048036038101906101bd9190610f6e565b6109cf565b6040516101cf9190611274565b60405180910390f35b6101f260048036038101906101ed919061130f565b610a23565b005b3480156101ff575f5ffd5b50610208610a40565b60405161021591906114d8565b60405180910390f35b610238600480360381019061023391906114f8565b610acb565b005b60035481565b60608060608061024e610e8d565b5f5f5f8873ffffffffffffffffffffffffffffffffffffffff1673ffffffffffffffffffffffffffffffffffffffff1681526020019081526020015f20600e015f9054906101000a900460ff166102da576040517f08c379a00000000000000000000000000000000000000000000000000000000081526004016102d190611668565b60405180910390fd5b5f5f5f8973ffffffffffffffffffffffffffffffffffffffff1673ffffffffffffffffffffffffffffffffffffffff1681526020019081526020015f209050805f018160010182600201836003018460040185600d015485805461033d906116b3565b80601f0160208091040260200160405190810160405280929190818152602001828054610369906116b3565b80156103b45780601f1061038b576101008083540402835291602001916103b4565b820191905f5260205f20905b81548152906001019060200180831161039757829003601f168201915b505050505095508480546103c7906116b3565b80601f01602080910402602001604051908101604052809291908181526020018280546103f3906116b3565b801561043e5780601f106104155761010080835404028352916020019161043e565b820191905f5260205f20905b81548152906001019060200180831161042157829003601f168201915b50505050509450838054610451906116b3565b80601f016020809104026020016040519081016040528092919081815260200182805461047d906116b3565b80156104c85780601f1061049f576101008083540402835291602001916104c8565b820191905f5260205f20905b8154815290600101906020018083116104ab57829003601f168201915b505050505093508280546104db906116b3565b80601f0160208091040260200160405190810160405280929190818152602001828054610507906116b3565b80156105525780601f1061052957610100808354040283529160200191610552565b820191905f5260205f20905b81548152906001019060200180831161053557829003601f168201915b5050505050925081600380602002604051908101604052809291905f905b82821015610747578382600302016040518060600160405290815f82018054610598906116b3565b80601f01602080910402602001604051908101604052809291908181526020018280546105c4906116b3565b801561060f5780601f106105e65761010080835404028352916020019161060f565b820191905f5260205f20905b8154815290600101906020018083116105f257829003601f168201915b50505050508152602001600182018054610628906116b3565b80601f0160208091040260200160405190810160405280929190818152602001828054610654906116b3565b801561069f5780601f106106765761010080835404028352916020019161069f565b820191905f5260205f20905b81548152906001019060200180831161068257829003601f168201915b505050505081526020016002820180546106b8906116b3565b80601f01602080910402602001604051908101604052809291908181526020018280546106e4906116b3565b801561072f5780601f106107065761010080835404028352916020019161072f565b820191905f5260205f20905b81548152906001019060200180831161071257829003601f168201915b50505050508152505081526020019060010190610570565b5050505091509650965096509650965096505091939550919395565b60025f9054906101000a900473ffffffffffffffffffffffffffffffffffffffff1673ffffffffffffffffffffffffffffffffffffffff163373ffffffffffffffffffffffffffffffffffffffff16146107f2576040517f08c379a00000000000000000000000000000000000000000000000000000000081526004016107e99061172d565b60405180910390fd5b5f4790505f8111610838576040517f08c379a000000000000000000000000000000000000000000000000000000000815260040161082f90611795565b60405180910390fd5b5f60025f9054906101000a900473ffffffffffffffffffffffffffffffffffffffff1673ffffffffffffffffffffffffffffffffffffffff168260405161087e906117e0565b5f6040518083038185875af1925050503d805f81146108b8576040519150601f19603f3d011682016040523d82523d5f602084013e6108bd565b606091505b5050905080610901576040517f08c379a00000000000000000000000000000000000000000000000000000000081526004016108f89061183e565b60405180910390fd5b5050565b5f600180549050905090565b60025f9054906101000a900473ffffffffffffffffffffffffffffffffffffffff1681565b60025f9054906101000a900473ffffffffffffffffffffffffffffffffffffffff1673ffffffffffffffffffffffffffffffffffffffff163373ffffffffffffffffffffffffffffffffffffffff16146109c5576040517f08c379a00000000000000000000000000000000000000000000000000000000081526004016109bc9061172d565b60405180910390fd5b8060038190555050565b5f5f5f8373ffffffffffffffffffffffffffffffffffffffff1673ffffffffffffffffffffffffffffffffffffffff1681526020019081526020015f20600e015f9054906101000a900460ff169050919050565b610a35338a8a8a8a8a8a8a8a8a610ae9565b505050505050505050565b60606001805480602002602001604051908101604052809291908181526020018280548015610ac157602002820191905f5260205f20905b815f9054906101000a900473ffffffffffffffffffffffffffffffffffffffff1673ffffffffffffffffffffffffffffffffffffffff1681526020019060010190808311610a78575b5050505050905090565b610add8a8a8a8a8a8a8a8a8a8a610ae9565b50505050505050505050565b5f5f5f8c73ffffffffffffffffffffffffffffffffffffffff1673ffffffffffffffffffffffffffffffffffffffff1681526020019081526020015f20600e015f9054906101000a900460ff16905080610bd157600354341015610b82576040517f08c379a0000000000000000000000000000000000000000000000000000000008152600401610b79906118a6565b60405180910390fd5b8a73ffffffffffffffffffffffffffffffffffffffff167f06c5efeff5c320943d265dc4e5f1af95ad523555ce0c1957e367dda5514572df34604051610bc89190610ef3565b60405180910390a25b5f5f5f8d73ffffffffffffffffffffffffffffffffffffffff1673ffffffffffffffffffffffffffffffffffffffff1681526020019081526020015f2090508a8a825f019182610c22929190611a9b565b508888826001019182610c36929190611a9b565b508686826002019182610c4a929190611a9b565b508484826003019182610c5e929190611a9b565b50825f60038110610c7257610c71611b68565b5b602002810190610c829190611ba1565b816004015f60038110610c9857610c97611b68565b5b600302018181610ca89190611c9f565b90505082600160038110610cbf57610cbe611b68565b5b602002810190610ccf9190611ba1565b81600401600160038110610ce657610ce5611b68565b5b600302018181610cf69190611c9f565b90505082600260038110610d0d57610d0c611b68565b5b602002810190610d1d9190611ba1565b81600401600260038110610d3457610d33611b68565b5b600302018181610d449190611c9f565b9050504281600d018190555081610e2a57600181600e015f6101000a81548160ff02191690831515021790555060018c908060018154018082558091505060019003905f5260205f20015f9091909190916101000a81548173ffffffffffffffffffffffffffffffffffffffff021916908373ffffffffffffffffffffffffffffffffffffffff1602179055508b73ffffffffffffffffffffffffffffffffffffffff167f7913b09be6a5514bb306763d88964313596e2165b0bdacc5e3a5e374c094f82e8c8c8c8c604051610e1d9493929190611ce7565b60405180910390a2610e7f565b8b73ffffffffffffffffffffffffffffffffffffffff167f63b2c022a48fec013b4aa91437e8f6cccbcc53e7b78e872c8e98055158d5ead28c8c8c8c604051610e769493929190611ce7565b60405180910390a25b505050505050505050505050565b60405180606001604052806003905b610ea4610eba565b815260200190600190039081610e9c5790505090565b60405180606001604052806060815260200160608152602001606081525090565b5f819050919050565b610eed81610edb565b82525050565b5f602082019050610f065f830184610ee4565b92915050565b5f5ffd5b5f5ffd5b5f73ffffffffffffffffffffffffffffffffffffffff82169050919050565b5f610f3d82610f14565b9050919050565b610f4d81610f33565b8114610f57575f5ffd5b50565b5f81359050610f6881610f44565b92915050565b5f60208284031215610f8357610f82610f0c565b5b5f610f9084828501610f5a565b91505092915050565b5f81519050919050565b5f82825260208201905092915050565b8281835e5f83830152505050565b5f601f19601f8301169050919050565b5f610fdb82610f99565b610fe58185610fa3565b9350610ff5818560208601610fb3565b610ffe81610fc1565b840191505092915050565b5f60039050919050565b5f81905092915050565b5f819050919050565b5f82825260208201905092915050565b5f61104082610f99565b61104a8185611026565b935061105a818560208601610fb3565b61106381610fc1565b840191505092915050565b5f606083015f8301518482035f8601526110888282611036565b915050602083015184820360208601526110a28282611036565b915050604083015184820360408601526110bc8282611036565b9150508091505092915050565b5f6110d4838361106e565b905092915050565b5f602082019050919050565b5f6110f282611009565b6110fc8185611013565b93508360208202850161110e8561101d565b805f5b85811015611149578484038952815161112a85826110c9565b9450611135836110dc565b925060208a01995050600181019050611111565b50829750879550505050505092915050565b5f60c0820190508181035f8301526111738189610fd1565b905081810360208301526111878188610fd1565b9050818103604083015261119b8187610fd1565b905081810360608301526111af8186610fd1565b905081810360808301526111c381856110e8565b90506111d260a0830184610ee4565b979650505050505050565b6111e681610f33565b82525050565b5f6020820190506111ff5f8301846111dd565b92915050565b61120e81610edb565b8114611218575f5ffd5b50565b5f8135905061122981611205565b92915050565b5f6020828403121561124457611243610f0c565b5b5f6112518482850161121b565b91505092915050565b5f8115159050919050565b61126e8161125a565b82525050565b5f6020820190506112875f830184611265565b92915050565b5f5ffd5b5f5ffd5b5f5ffd5b5f5f83601f8401126112ae576112ad61128d565b5b8235905067ffffffffffffffff8111156112cb576112ca611291565b5b6020830191508360018202830111156112e7576112e6611295565b5b9250929050565b5f8190508260206003028201111561130957611308611295565b5b92915050565b5f5f5f5f5f5f5f5f5f60a08a8c03121561132c5761132b610f0c565b5b5f8a013567ffffffffffffffff81111561134957611348610f10565b5b6113558c828d01611299565b995099505060208a013567ffffffffffffffff81111561137857611377610f10565b5b6113848c828d01611299565b975097505060408a013567ffffffffffffffff8111156113a7576113a6610f10565b5b6113b38c828d01611299565b955095505060608a013567ffffffffffffffff8111156113d6576113d5610f10565b5b6113e28c828d01611299565b935093505060808a013567ffffffffffffffff81111561140557611404610f10565b5b6114118c828d016112ee565b9150509295985092959850929598565b5f81519050919050565b5f82825260208201905092915050565b5f819050602082019050919050565b61145381610f33565b82525050565b5f611464838361144a565b60208301905092915050565b5f602082019050919050565b5f61148682611421565b611490818561142b565b935061149b8361143b565b805f5b838110156114cb5781516114b28882611459565b97506114bd83611470565b92505060018101905061149e565b5085935050505092915050565b5f6020820190508181035f8301526114f0818461147c565b905092915050565b5f5f5f5f5f5f5f5f5f5f60c08b8d03121561151657611515610f0c565b5b5f6115238d828e01610f5a565b9a505060208b013567ffffffffffffffff81111561154457611543610f10565b5b6115508d828e01611299565b995099505060408b013567ffffffffffffffff81111561157357611572610f10565b5b61157f8d828e01611299565b975097505060608b013567ffffffffffffffff8111156115a2576115a1610f10565b5b6115ae8d828e01611299565b955095505060808b013567ffffffffffffffff8111156115d1576115d0610f10565b5b6115dd8d828e01611299565b935093505060a08b013567ffffffffffffffff811115611600576115ff610f10565b5b61160c8d828e016112ee565b9150509295989b9194979a5092959850565b7f47796d206e6f74207265676973746572656400000000000000000000000000005f82015250565b5f611652601283610fa3565b915061165d8261161e565b602082019050919050565b5f6020820190508181035f83015261167f81611646565b9050919050565b7f4e487b71000000000000000000000000000000000000000000000000000000005f52602260045260245ffd5b5f60028204905060018216806116ca57607f821691505b6020821081036116dd576116dc611686565b5b50919050565b7f4e6f74206f776e657200000000000000000000000000000000000000000000005f82015250565b5f611717600983610fa3565b9150611722826116e3565b602082019050919050565b5f6020820190508181035f8301526117448161170b565b9050919050565b7f4e6f206665657320746f207769746864726177000000000000000000000000005f82015250565b5f61177f601383610fa3565b915061178a8261174b565b602082019050919050565b5f6020820190508181035f8301526117ac81611773565b9050919050565b5f81905092915050565b50565b5f6117cb5f836117b3565b91506117d6826117bd565b5f82019050919050565b5f6117ea826117c0565b9150819050919050565b7f5472616e73666572206661696c656400000000000000000000000000000000005f82015250565b5f611828600f83610fa3565b9150611833826117f4565b602082019050919050565b5f6020820190508181035f8301526118558161181c565b9050919050565b7f496e73756666696369656e7420726567697374726174696f6e206665650000005f82015250565b5f611890601d83610fa3565b915061189b8261185c565b602082019050919050565b5f6020820190508181035f8301526118bd81611884565b9050919050565b5f82905092915050565b7f4e487b71000000000000000000000000000000000000000000000000000000005f52604160045260245ffd5b5f819050815f5260205f209050919050565b5f6020601f8301049050919050565b5f82821b905092915050565b5f600883026119577fffffffffffffffffffffffffffffffffffffffffffffffffffffffffffffffff8261191c565b611961868361191c565b95508019841693508086168417925050509392505050565b5f819050919050565b5f61199c61199761199284610edb565b611979565b610edb565b9050919050565b5f819050919050565b6119b583611982565b6119c96119c1826119a3565b848454611928565b825550505050565b5f5f905090565b6119e06119d1565b6119eb8184846119ac565b505050565b5b81811015611a0e57611a035f826119d8565b6001810190506119f1565b5050565b601f821115611a5357611a24816118fb565b611a2d8461190d565b81016020851015611a3c578190505b611a50611a488561190d565b8301826119f0565b50505b505050565b5f82821c905092915050565b5f611a735f1984600802611a58565b1980831691505092915050565b5f611a8b8383611a64565b9150826002028217905092915050565b611aa583836118c4565b67ffffffffffffffff811115611abe57611abd6118ce565b5b611ac882546116b3565b611ad3828285611a12565b5f601f831160018114611b00575f8415611aee578287013590505b611af88582611a80565b865550611b5f565b601f198416611b0e866118fb565b5f5b82811015611b3557848901358255600182019150602085019450602081019050611b10565b86831015611b525784890135611b4e601f891682611a64565b8355505b6001600288020188555050505b50505050505050565b7f4e487b71000000000000000000000000000000000000000000000000000000005f52603260045260245ffd5b5f5ffd5b5f5ffd5b5f5ffd5b5f82356001606003833603038112611bbc57611bbb611b95565b5b80830191505092915050565b5f5f83356001602003843603038112611be457611be3611b95565b5b80840192508235915067ffffffffffffffff821115611c0657611c05611b99565b5b602083019250600182023603831315611c2257611c21611b9d565b5b509250929050565b611c35838383611a9b565b505050565b5f81015f8301611c4a8185611bc8565b611c55818386611c2a565b505050506001810160208301611c6b8185611bc8565b611c76818386611c2a565b505050506002810160408301611c8c8185611bc8565b611c97818386611c2a565b505050505050565b611ca98282611c3a565b5050565b828183375f83830152505050565b5f611cc68385610fa3565b9350611cd3838584611cad565b611cdc83610fc1565b840190509392505050565b5f6040820190508181035f830152611d00818688611cbb565b90508181036020830152611d15818486611cbb565b90509594505050505056fea2646970667358221220dfeb39327b2b3ce4027d8a8ff0177d7195e426b0aaf57b84b53b907d50f32b1a64736f6c634300081c0033","linkReferences":{}},"methodIdentifiers":{"getAllGyms()":"da9f67fe","getGym(address)":"1e1d8286","gymCount()":"5696091e","isRegistered(address)":"c3c5a547","owner()":"8da5cb5b","registerGym(string,string,string,string,(string,string,string)[3])":"d4b5f516","registerGymFor(address,string,string,string,string,(string,string,string)[3])":"f814ef86","registrationFee()":"14c44e09","setRegistrationFee(uint256)":"c320c727","withdrawFees()":"476343ee"},"id":19}