{"abi":[{"type":"function","name":"getAllGyms","inputs":[],"outputs":[{"name":"","type":"address[]","internalType":"address[]"}],"stateMutability":"view"},{"type":"function","name":"getGym","inputs":[{"name":"trainer","type":"address","internalType":"address"}],"outputs":[{"name":"name","type":"string","internalType":"string"},{"name":"gymType","type":"string","internalType":"string"},{"name":"archetype","type":"string","internalType":"string"},{"name":"battleCry","type":"string","internalType":"string"},{"name":"pokemon","type":"tuple[3]","internalType":"struct GymRegistry.Pokemon[3]","components":[{"name":"species","type":"string","internalType":"string"},{"name":"type1","type":"string","internalType":"string"},{"name":"type2","type":"string","internalType":"string"}]},{"name":"timestamp","type":"uint256","internalType":"uint256"}],"stateMutability":"view"},{"type":"function","name":"gymCount","inputs":[],"outputs":[{"name":"","type":"uint256","internalType":"uint256"}],"stateMutability":"view"},{"type":"function","name":"isRegistered","inputs":[{"name":"trainer","type":"address","internalType":"address"}],"outputs":[{"name":"","type":"bool","internalType":"bool"}],"stateMutability":"view"},{"type":"function","name":"registerGym","inputs":[{"name":"name","type":"string","internalType":"string"},{"name":"gymType","type":"string","internalType":"string"},{"name":"archetype","type":"string","internalType":"string"},{"name":"battleCry","type":"string","internalType":"string"},{"name":"pokemonData","type":"tuple[3]","internalType":"struct GymRegistry.Pokemon[3]","components":[{"name":"species","type":"string","internalType":"string"},{"name":"type1","type":"string","internalType":"string"},{"name":"type2","type":"string","internalType":"string"}]}],"outputs":[],"stateMutability":"nonpayable"},{"type":"function","name":"registerGymFor","inputs":[{"name":"trainer","type":"address","internalType":"address"},{"name":"name","type":"string","internalType":"string"},{"name":"gymType","type":"string","internalType":"string"},{"name":"archetype","type":"string","internalType":"string"},{"name":"battleCry","type":"string","internalType":"string"},{"name":"pokemonData","type":"tuple[3]","internalType":"struct GymRegistry.Pokemon[3]","components":[{"name":"species","type":"string","internalType":"string"},{"name":"type1","type":"string","internalType":"string"},{"name":"type2","type":"string","internalType":"string"}]}],"outputs":[],"stateMutability":"nonpayable"},{"type":"event","name":"GymRegistered","inputs":[{"name":"trainer","type":"address","indexed":true,"internalType":"address"},{"name":"name","type":"string","indexed":false,"internalType":"string"},{"name":"gymType","type":"string","indexed":false,"internalType":"string"}],"anonymous":false},{"type":"event","name":"GymUpdated","inputs":[{"name":"trainer","type":"address","indexed":true,"internalType":"address"},{"name":"name","type":"string","indexed":false,"internalType":"string"},{"name":"gymType","type":"string","indexed":false,"internalType":"string"}],"anonymous":false}],"bytecode":{"object":"0x6080604052348015600e575f5ffd5b506116fc8061001c5f395ff3fe608060405234801561000f575f5ffd5b5060043610610060575f3560e01c80631e1d8286146100645780635696091e14610099578063c3c5a547146100b7578063d4b5f516146100e7578063da9f67fe14610103578063f814ef8614610121575b5f5ffd5b61007e60048036038101906100799190610b41565b61013d565b60405161009096959493929190610d46565b60405180910390f35b6100a1610660565b6040516100ae9190610dc8565b60405180910390f35b6100d160048036038101906100cc9190610b41565b61066c565b6040516100de9190610dfb565b60405180910390f35b61010160048036038101906100fc9190610e96565b6106c0565b005b61010b6106dd565b604051610118919061105f565b60405180910390f35b61013b6004803603810190610136919061107f565b610768565b005b60608060608061014b610a91565b5f5f5f8873ffffffffffffffffffffffffffffffffffffffff1673ffffffffffffffffffffffffffffffffffffffff1681526020019081526020015f20600e015f9054906101000a900460ff166101d7576040517f08c379a00000000000000000000000000000000000000000000000000000000081526004016101ce906111ef565b60405180910390fd5b5f5f5f8973ffffffffffffffffffffffffffffffffffffffff1673ffffffffffffffffffffffffffffffffffffffff1681526020019081526020015f209050805f018160010182600201836003018460040185600d015485805461023a9061123a565b80601f01602080910402602001604051908101604052809291908181526020018280546102669061123a565b80156102b15780601f10610288576101008083540402835291602001916102b1565b820191905f5260205f20905b81548152906001019060200180831161029457829003601f168201915b505050505095508480546102c49061123a565b80601f01602080910402602001604051908101604052809291908181526020018280546102f09061123a565b801561033b5780601f106103125761010080835404028352916020019161033b565b820191905f5260205f20905b81548152906001019060200180831161031e57829003601f168201915b5050505050945083805461034e9061123a565b80601f016020809104026020016040519081016040528092919081815260200182805461037a9061123a565b80156103c55780601f1061039c576101008083540402835291602001916103c5565b820191905f5260205f20905b8154815290600101906020018083116103a857829003601f168201915b505050505093508280546103d89061123a565b80601f01602080910402602001604051908101604052809291908181526020018280546104049061123a565b801561044f5780601f106104265761010080835404028352916020019161044f565b820191905f5260205f20905b81548152906001019060200180831161043257829003601f168201915b5050505050925081600380602002604051908101604052809291905f905b82821015610644578382600302016040518060600160405290815f820180546104959061123a565b80601f01602080910402602001604051908101604052809291908181526020018280546104c19061123a565b801561050c5780601f106104e35761010080835404028352916020019161050c565b820191905f5260205f20905b8154815290600101906020018083116104ef57829003601f168201915b505050505081526020016001820180546105259061123a565b80601f01602080910402602001604051908101604052809291908181526020018280546105519061123a565b801561059c5780601f106105735761010080835404028352916020019161059c565b820191905f5260205f20905b81548152906001019060200180831161057f57829003601f168201915b505050505081526020016002820180546105b59061123a565b80601f01602080910402602001604051908101604052809291908181526020018280546105e19061123a565b801561062c5780601f106106035761010080835404028352916020019161062c565b820191905f5260205f20905b81548152906001019060200180831161060f57829003601f168201915b5050505050815250508152602001906001019061046d565b5050505091509650965096509650965096505091939550919395565b5f600180549050905090565b5f5f5f8373ffffffffffffffffffffffffffffffffffffffff1673ffffffffffffffffffffffffffffffffffffffff1681526020019081526020015f20600e015f9054906101000a900460ff169050919050565b6106d2338a8a8a8a8a8a8a8a8a610786565b505050505050505050565b6060600180548060200260200160405190810160405280929190818152602001828054801561075e57602002820191905f5260205f20905b815f9054906101000a900473ffffffffffffffffffffffffffffffffffffffff1673ffffffffffffffffffffffffffffffffffffffff1681526020019060010190808311610715575b5050505050905090565b61077a8a8a8a8a8a8a8a8a8a8a610786565b50505050505050505050565b5f5f5f8c73ffffffffffffffffffffffffffffffffffffffff1673ffffffffffffffffffffffffffffffffffffffff1681526020019081526020015f20600e015f9054906101000a900460ff1690505f5f5f8d73ffffffffffffffffffffffffffffffffffffffff1673ffffffffffffffffffffffffffffffffffffffff1681526020019081526020015f2090508a8a825f019182610826929190611441565b50888882600101918261083a929190611441565b50868682600201918261084e929190611441565b508484826003019182610862929190611441565b50825f600381106108765761087561150e565b5b6020028101906108869190611547565b816004015f6003811061089c5761089b61150e565b5b6003020181816108ac9190611645565b905050826001600381106108c3576108c261150e565b5b6020028101906108d39190611547565b816004016001600381106108ea576108e961150e565b5b6003020181816108fa9190611645565b905050826002600381106109115761091061150e565b5b6020028101906109219190611547565b816004016002600381106109385761093761150e565b5b6003020181816109489190611645565b9050504281600d018190555081610a2e57600181600e015f6101000a81548160ff02191690831515021790555060018c908060018154018082558091505060019003905f5260205f20015f9091909190916101000a81548173ffffffffffffffffffffffffffffffffffffffff021916908373ffffffffffffffffffffffffffffffffffffffff1602179055508b73ffffffffffffffffffffffffffffffffffffffff167f7913b09be6a5514bb306763d88964313596e2165b0bdacc5e3a5e374c094f82e8c8c8c8c604051610a21949392919061168d565b60405180910390a2610a83565b8b73ffffffffffffffffffffffffffffffffffffffff167f63b2c022a48fec013b4aa91437e8f6cccbcc53e7b78e872c8e98055158d5ead28c8c8c8c604051610a7a949392919061168d565b60405180910390a25b505050505050505050505050565b60405180606001604052806003905b610aa8610abe565b815260200190600190039081610aa05790505090565b60405180606001604052806060815260200160608152602001606081525090565b5f5ffd5b5f5ffd5b5f73ffffffffffffffffffffffffffffffffffffffff82169050919050565b5f610b1082610ae7565b9050919050565b610b2081610b06565b8114610b2a575f5ffd5b50565b5f81359050610b3b81610b17565b92915050565b5f60208284031215610b5657610b55610adf565b5b5f610b6384828501610b2d565b91505092915050565b5f81519050919050565b5f82825260208201905092915050565b8281835e5f83830152505050565b5f601f19601f8301169050919050565b5f610bae82610b6c565b610bb88185610b76565b9350610bc8818560208601610b86565b610bd181610b94565b840191505092915050565b5f60039050919050565b5f81905092915050565b5f819050919050565b5f82825260208201905092915050565b5f610c1382610b6c565b610c1d8185610bf9565b9350610c2d818560208601610b86565b610c3681610b94565b840191505092915050565b5f606083015f8301518482035f860152610c5b8282610c09565b91505060208301518482036020860152610c758282610c09565b91505060408301518482036040860152610c8f8282610c09565b9150508091505092915050565b5f610ca78383610c41565b905092915050565b5f602082019050919050565b5f610cc582610bdc565b610ccf8185610be6565b935083602082028501610ce185610bf0565b805f5b85811015610d1c5784840389528151610cfd8582610c9c565b9450610d0883610caf565b925060208a01995050600181019050610ce4565b50829750879550505050505092915050565b5f819050919050565b610d4081610d2e565b82525050565b5f60c0820190508181035f830152610d5e8189610ba4565b90508181036020830152610d728188610ba4565b90508181036040830152610d868187610ba4565b90508181036060830152610d9a8186610ba4565b90508181036080830152610dae8185610cbb565b9050610dbd60a0830184610d37565b979650505050505050565b5f602082019050610ddb5f830184610d37565b92915050565b5f8115159050919050565b610df581610de1565b82525050565b5f602082019050610e0e5f830184610dec565b92915050565b5f5ffd5b5f5ffd5b5f5ffd5b5f5f83601f840112610e3557610e34610e14565b5b8235905067ffffffffffffffff811115610e5257610e51610e18565b5b602083019150836001820283011115610e6e57610e6d610e1c565b5b9250929050565b5f81905082602060030282011115610e9057610e8f610e1c565b5b92915050565b5f5f5f5f5f5f5f5f5f60a08a8c031215610eb357610eb2610adf565b5b5f8a013567ffffffffffffffff811115610ed057610ecf610ae3565b5b610edc8c828d01610e20565b995099505060208a013567ffffffffffffffff811115610eff57610efe610ae3565b5b610f0b8c828d01610e20565b975097505060408a013567ffffffffffffffff811115610f2e57610f2d610ae3565b5b610f3a8c828d01610e20565b955095505060608a013567ffffffffffffffff811115610f5d57610f5c610ae3565b5b610f698c828d01610e20565b935093505060808a013567ffffffffffffffff811115610f8c57610f8b610ae3565b5b610f988c828d01610e75565b9150509295985092959850929598565b5f81519050919050565b5f82825260208201905092915050565b5f819050602082019050919050565b610fda81610b06565b82525050565b5f610feb8383610fd1565b60208301905092915050565b5f602082019050919050565b5f61100d82610fa8565b6110178185610fb2565b935061102283610fc2565b805f5b838110156110525781516110398882610fe0565b975061104483610ff7565b925050600181019050611025565b5085935050505092915050565b5f6020820190508181035f8301526110778184611003565b905092915050565b5f5f5f5f5f5f5f5f5f5f60c08b8d03121561109d5761109c610adf565b5b5f6110aa8d828e01610b2d565b9a505060208b013567ffffffffffffffff8111156110cb576110ca610ae3565b5b6110d78d828e01610e20565b995099505060408b013567ffffffffffffffff8111156110fa576110f9610ae3565b5b6111068d828e01610e20565b975097505060608b013567ffffffffffffffff81111561112957611128610ae3565b5b6111358d828e01610e20565b955095505060808b013567ffffffffffffffff81111561115857611157610ae3565b5b6111648d828e01610e20565b935093505060a08b013567ffffffffffffffff81111561118757611186610ae3565b5b6111938d828e01610e75565b9150509295989b9194979a5092959850565b7f47796d206e6f74207265676973746572656400000000000000000000000000005f82015250565b5f6111d9601283610b76565b91506111e4826111a5565b602082019050919050565b5f6020820190508181035f830152611206816111cd565b9050919050565b7f4e487b71000000000000000000000000000000000000000000000000000000005f52602260045260245ffd5b5f600282049050600182168061125157607f821691505b6020821081036112645761126361120d565b5b50919050565b5f82905092915050565b7f4e487b71000000000000000000000000000000000000000000000000000000005f52604160045260245ffd5b5f819050815f5260205f209050919050565b5f6020601f8301049050919050565b5f82821b905092915050565b5f600883026112fd7fffffffffffffffffffffffffffffffffffffffffffffffffffffffffffffffff826112c2565b61130786836112c2565b95508019841693508086168417925050509392505050565b5f819050919050565b5f61134261133d61133884610d2e565b61131f565b610d2e565b9050919050565b5f819050919050565b61135b83611328565b61136f61136782611349565b8484546112ce565b825550505050565b5f5f905090565b611386611377565b611391818484611352565b505050565b5b818110156113b4576113a95f8261137e565b600181019050611397565b5050565b601f8211156113f9576113ca816112a1565b6113d3846112b3565b810160208510156113e2578190505b6113f66113ee856112b3565b830182611396565b50505b505050565b5f82821c905092915050565b5f6114195f19846008026113fe565b1980831691505092915050565b5f611431838361140a565b9150826002028217905092915050565b61144b838361126a565b67ffffffffffffffff81111561146457611463611274565b5b61146e825461123a565b6114798282856113b8565b5f601f8311600181146114a6575f8415611494578287013590505b61149e8582611426565b865550611505565b601f1984166114b4866112a1565b5f5b828110156114db578489013582556001820191506020850194506020810190506114b6565b868310156114f857848901356114f4601f89168261140a565b8355505b6001600288020188555050505b50505050505050565b7f4e487b71000000000000000000000000000000000000000000000000000000005f52603260045260245ffd5b5f5ffd5b5f5ffd5b5f5ffd5b5f823560016060038336030381126115625761156161153b565b5b80830191505092915050565b5f5f8335600160200384360303811261158a5761158961153b565b5b80840192508235915067ffffffffffffffff8211156115ac576115ab61153f565b5b6020830192506001820236038313156115c8576115c7611543565b5b509250929050565b6115db838383611441565b505050565b5f81015f83016115f0818561156e565b6115fb8183866115d0565b505050506001810160208301611611818561156e565b61161c8183866115d0565b505050506002810160408301611632818561156e565b61163d8183866115d0565b505050505050565b61164f82826115e0565b5050565b828183375f83830152505050565b5f61166c8385610b76565b9350611679838584611653565b61168283610b94565b840190509392505050565b5f6040820190508181035f8301526116a6818688611661565b905081810360208301526116bb818486611661565b90509594505050505056fea26469706673582212201d21d8748c17ce71bb23309df1b1426f6f2edf6f3d7015afe2215d60bef3cfd264736f6c634300081c0033","linkReferences":{}},"methodIdentifiers":{"getAllGyms()":"da9f67fe","getGym(address)":"1e1d8286","gymCount()":"5696091e","isRegistered(address)":"c3c5a547","registerGym(string,string,string,string,(string,string,string)[3])":"d4b5f516","registerGymFor(address,string,string,string,string,(string,string,string)[3])":"f814ef86"},"id":19}