{"abi":[{"type":"constructor","inputs":[],"stateMutability":"nonpayable"},{"type":"function","name":"approve","inputs":[{"name":"to","type":"address","internalType":"address"},{"name":"tokenId","type":"uint256","internalType":"uint256"}],"outputs":[],"stateMutability":"nonpayable"},{"type":"function","name":"balanceOf","inputs":[{"name":"owner","type":"address","internalType":"address"}],"outputs":[{"name":"","type":"uint256","internalType":"uint256"}],"stateMutability":"view"},{"type":"function","name":"getApproved","inputs":[{"name":"tokenId","type":"uint256","internalType":"uint256"}],"outputs":[{"name":"","type":"address","internalType":"address"}],"stateMutability":"view"},{"type":"function","name":"getBadge","inputs":[{"name":"tokenId","type":"uint256","internalType":"uint256"}],"outputs":[{"name":"","type":"tuple","internalType":"struct GymBadge.BadgeData","components":[{"name":"gymLeader","type":"address","internalType":"address"},{"name":"challenger","type":"address","internalType":"address"},{"name":"gymName","type":"string","internalType":"string"},{"name":"gymType","type":"string","internalType":"string"},{"name":"challengeId","type":"uint256","internalType":"uint256"},{"name":"earnedAt","type":"uint256","internalType":"uint256"}]}],"stateMutability":"view"},{"type":"function","name":"getBadgesByOwner","inputs":[{"name":"_owner","type":"address","internalType":"address"}],"outputs":[{"name":"","type":"uint256[]","internalType":"uint256[]"}],"stateMutability":"view"},{"type":"function","name":"isApprovedForAll","inputs":[{"name":"owner","type":"address","internalType":"address"},{"name":"operator","type":"address","internalType":"address"}],"outputs":[{"name":"","type":"bool","internalType":"bool"}],"stateMutability":"view"},{"type":"function","name":"mint","inputs":[{"name":"to","type":"address","internalType":"address"},{"name":"data","type":"tuple","internalType":"struct GymBadge.BadgeData","components":[{"name":"gymLeader","type":"address","internalType":"address"},{"name":"challenger","type":"address","internalType":"address"},{"name":"gymName","type":"string","internalType":"string"},{"name":"gymType","type":"string","internalType":"string"},{"name":"challengeId","type":"uint256","internalType":"uint256"},{"name":"earnedAt","type":"uint256","internalType":"uint256"}]}],"outputs":[{"name":"","type":"uint256","internalType":"uint256"}],"stateMutability":"nonpayable"},{"type":"function","name":"minter","inputs":[],"outputs":[{"name":"","type":"address","internalType":"address"}],"stateMutability":"view"},{"type":"function","name":"name","inputs":[],"outputs":[{"name":"","type":"string","internalType":"string"}],"stateMutability":"view"},{"type":"function","name":"owner","inputs":[],"outputs":[{"name":"","type":"address","internalType":"address"}],"stateMutability":"view"},{"type":"function","name":"ownerOf","inputs":[{"name":"tokenId","type":"uint256","internalType":"uint256"}],"outputs":[{"name":"","type":"address","internalType":"address"}],"stateMutability":"view"},{"type":"function","name":"safeTransferFrom","inputs":[{"name":"from","type":"address","internalType":"address"},{"name":"to","type":"address","internalType":"address"},{"name":"tokenId","type":"uint256","internalType":"uint256"}],"outputs":[],"stateMutability":"nonpayable"},{"type":"function","name":"safeTransferFrom","inputs":[{"name":"from","type":"address","internalType":"address"},{"name":"to","type":"address","internalType":"address"},{"name":"tokenId","type":"uint256","internalType":"uint256"},{"name":"data","type":"bytes","internalType":"bytes"}],"outputs":[],"stateMutability":"nonpayable"},{"type":"function","name":"setApprovalForAll","inputs":[{"name":"operator","type":"address","internalType":"address"},{"name":"approved","type":"bool","internalType":"bool"}],"outputs":[],"stateMutability":"nonpayable"},{"type":"function","name":"setMinter","inputs":[{"name":"_minter","type":"address","internalType":"address"}],"outputs":[],"stateMutability":"nonpayable"},{"type":"function","name":"supportsInterface","inputs":[{"name":"interfaceId","type":"bytes4","internalType":"bytes4"}],"outputs":[{"name":"","type":"bool","internalType":"bool"}],"stateMutability":"view"},{"type":"function","name":"symbol","inputs":[],"outputs":[{"name":"","type":"string","internalType":"string"}],"stateMutability":"view"},{"type":"function","name":"tokenURI","inputs":[{"name":"tokenId","type":"uint256","internalType":"uint256"}],"outputs":[{"name":"","type":"string","internalType":"string"}],"stateMutability":"view"},{"type":"function","name":"totalSupply","inputs":[],"outputs":[{"name":"","type":"uint256","internalType":"uint256"}],"stateMutability":"view"},{"type":"function","name":"transferFrom","inputs":[{"name":"from","type":"address","internalType":"address"},{"name":"to","type":"address","internalType":"address"},{"name":"tokenId","type":"uint256","internalType":"uint256"}],"outputs":[],"stateMutability":"nonpayable"},{"type":"event","name":"Approval","inputs":[{"name":"owner","type":"address","indexed":true,"internalType":"address"},{"name":"approved","type":"address","indexed":true,"internalType":"address"},{"name":"tokenId","type":"uint256","indexed":true,"internalType":"uint256"}],"anonymous":false},{"type":"event","name":"ApprovalForAll","inputs":[{"name":"owner","type":"address","indexed":true,"internalType":"address"},{"name":"operator","type":"address","indexed":true,"internalType":"address"},{"name":"approved","type":"bool","indexed":false,"internalType":"bool"}],"anonymous":false},{"type":"event","name":"MinterSet","inputs":[{"name":"minter","type":"address","indexed":true,"internalType":"address"}],"anonymous":false},{"type":"event","name":"Transfer","inputs":[{"name":"from","type":"address","indexed":true,"internalType":"address"},{"name":"to","type":"address","indexed":true,"internalType":"address"},{"name":"tokenId","type":"uint256","indexed":true,"internalType":"uint256"}],"anonymous":false},{"type":"error","name":"ERC721IncorrectOwner","inputs":[{"name":"sender","type":"address","internalType":"address"},{"name":"tokenId","type":"uint256","internalType":"uint256"},{"name":"owner","type":"address","internalType":"address"}]},{"type":"error","name":"ERC721InsufficientApproval","inputs":[{"name":"operator","type":"address","internalType":"address"},{"name":"tokenId","type":"uint256","internalType":"uint256"}]},{"type":"error","name":"ERC721InvalidApprover","inputs":[{"name":"approver","type":"address","internalType":"address"}]},{"type":"error","name":"ERC721InvalidOperator","inputs":[{"name":"operator","type":"address","internalType":"address"}]},{"type":"error","name":"ERC721InvalidOwner","inputs":[{"name":"owner","type":"address","internalType":"address"}]},{"type":"error","name":"ERC721InvalidReceiver","inputs":[{"name":"receiver","type":"address","internalType":"address"}]},{"type":"error","name":"ERC721InvalidSender","inputs":[{"name":"sender","type":"address","internalType":"address"}]},{"type":"error","name":"ERC721NonexistentToken","inputs":[{"name":"tokenId","type":"uint256","internalType":"uint256"}]}],"bytecode":{"object":"0x608060405234801561000f575f5ffd5b506040518060400160405280601081526020016f4172656e41492047796d20426164676560801b81525060405180604001604052806005815260200164424144474560d81b815250815f90816100659190610124565b5060016100728282610124565b5050600680546001600160a01b03191633179055506101de565b634e487b7160e01b5f52604160045260245ffd5b600181811c908216806100b457607f821691505b6020821081036100d257634e487b7160e01b5f52602260045260245ffd5b50919050565b601f82111561011f57805f5260205f20601f840160051c810160208510156100fd5750805b601f840160051c820191505b8181101561011c575f8155600101610109565b50505b505050565b81516001600160401b0381111561013d5761013d61008c565b6101518161014b84546100a0565b846100d8565b6020601f821160018114610183575f831561016c5750848201515b5f19600385901b1c1916600184901b17845561011c565b5f84815260208120601f198516915b828110156101b25787850151825560209485019460019092019101610192565b50848210156101cf57868401515f19600387901b60f8161c191681555b50505050600190811b01905550565b611bf8806101eb5f395ff3fe608060405234801561000f575f5ffd5b5060043610610163575f3560e01c80638d838622116100c7578063a22cb4651161007d578063c87b56dd11610063578063c87b56dd146102e9578063e985e9c5146102fc578063fca3b5aa14610337575f5ffd5b8063a22cb465146102c3578063b88d4fde146102d6575f5ffd5b80638e0cad41116100ad5780638e0cad411461028857806395d89b411461029b5780639df8cbe5146102a3575f5ffd5b80638d838622146102555780638da5cb5b14610275575f5ffd5b806318160ddd1161011c57806342842e0e1161010257806342842e0e1461021c5780636352211e1461022f57806370a0823114610242575f5ffd5b806318160ddd146101f757806323b872dd14610209575f5ffd5b8063075461721161014c57806307546172146101a4578063081812fc146101cf578063095ea7b3146101e2575f5ffd5b806301ffc9a71461016757806306fdde031461018f575b5f5ffd5b61017a61017536600461147f565b61034a565b60405190151581526020015b60405180910390f35b61019761042e565b60405161018691906114ed565b6007546101b7906001600160a01b031681565b6040516001600160a01b039091168152602001610186565b6101b76101dd3660046114ff565b6104bd565b6101f56101f0366004611531565b6104e4565b005b6008545b604051908152602001610186565b6101f5610217366004611559565b6104f3565b6101f561022a366004611559565b6105b3565b6101b761023d3660046114ff565b6105d2565b6101fb610250366004611593565b6105dc565b6102686102633660046114ff565b61063a565b60405161018691906115ac565b6006546101b7906001600160a01b031681565b6101fb610296366004611752565b610863565b6101976109c7565b6102b66102b1366004611593565b6109d6565b6040516101869190611834565b6101f56102d1366004611876565b610a3f565b6101f56102e43660046118af565b610a4a565b6101976102f73660046114ff565b610a62565b61017a61030a366004611926565b6001600160a01b039182165f90815260056020908152604080832093909416825291909152205460ff1690565b6101f5610345366004611593565b610afe565b5f7fffffffff0000000000000000000000000000000000000000000000000000000082167f80ac58cd0000000000000000000000000000000000000000000000000000000014806103dc57507fffffffff0000000000000000000000000000000000000000000000000000000082167f5b5e139f00000000000000000000000000000000000000000000000000000000145b8061042857507f01ffc9a7000000000000000000000000000000000000000000000000000000007fffffffff000000000000000000000000000000000000000000000000000000008316145b92915050565b60605f805461043c90611957565b80601f016020809104026020016040519081016040528092919081815260200182805461046890611957565b80156104b35780601f1061048a576101008083540402835291602001916104b3565b820191905f5260205f20905b81548152906001019060200180831161049657829003601f168201915b5050505050905090565b5f6104c782610bd3565b505f828152600460205260409020546001600160a01b0316610428565b6104ef828233610c24565b5050565b6001600160a01b03821661053a576040517f64a0ae920000000000000000000000000000000000000000000000000000000081525f60048201526024015b60405180910390fd5b5f610546838333610c31565b9050836001600160a01b0316816001600160a01b0316146105ad576040517f64283d7b0000000000000000000000000000000000000000000000000000000081526001600160a01b0380861660048301526024820184905282166044820152606401610531565b50505050565b6105cd83838360405180602001604052805f815250610a4a565b505050565b5f61042882610bd3565b5f6001600160a01b03821661061f576040517f89c62b640000000000000000000000000000000000000000000000000000000081525f6004820152602401610531565b506001600160a01b03165f9081526003602052604090205490565b6106816040518060c001604052805f6001600160a01b031681526020015f6001600160a01b0316815260200160608152602001606081526020015f81526020015f81525090565b60085482106106ec576040517f08c379a000000000000000000000000000000000000000000000000000000000815260206004820152601460248201527f426164676520646f6573206e6f742065786973740000000000000000000000006044820152606401610531565b5f82815260096020908152604091829020825160c08101845281546001600160a01b03908116825260018301541692810192909252600281018054929391929184019161073890611957565b80601f016020809104026020016040519081016040528092919081815260200182805461076490611957565b80156107af5780601f10610786576101008083540402835291602001916107af565b820191905f5260205f20905b81548152906001019060200180831161079257829003601f168201915b505050505081526020016003820180546107c890611957565b80601f01602080910402602001604051908101604052809291908181526020018280546107f490611957565b801561083f5780601f106108165761010080835404028352916020019161083f565b820191905f5260205f20905b81548152906001019060200180831161082257829003601f168201915b50505050508152602001600482015481526020016005820154815250509050919050565b6007545f906001600160a01b031633146108d9576040517f08c379a000000000000000000000000000000000000000000000000000000000815260206004820152600a60248201527f4e6f74206d696e746572000000000000000000000000000000000000000000006044820152606401610531565b600880545f91826108e9836119a8565b9190505590506108f98482610d3b565b5f81815260096020908152604091829020855181547fffffffffffffffffffffffff00000000000000000000000000000000000000009081166001600160a01b03928316178355928701516001830180549094169116179091559084015184919060028201906109699082611a29565b506060820151600382019061097e9082611a29565b506080820151600482015560a0909101516005909101556001600160a01b0384165f908152600a6020908152604082208054600181018255908352912001819055905092915050565b60606001805461043c90611957565b6001600160a01b0381165f908152600a6020908152604091829020805483518184028101840190945280845260609392830182828015610a3357602002820191905f5260205f20905b815481526020019060010190808311610a1f575b50505050509050919050565b6104ef338383610dce565b610a558484846104f3565b6105ad3385858585610ea3565b60606008548210610acf576040517f08c379a000000000000000000000000000000000000000000000000000000000815260206004820152601460248201527f426164676520646f6573206e6f742065786973740000000000000000000000006044820152606401610531565b610ad882611065565b604051602001610ae89190611b02565b6040516020818303038152906040529050919050565b6006546001600160a01b03163314610b72576040517f08c379a000000000000000000000000000000000000000000000000000000000815260206004820152600960248201527f4e6f74206f776e657200000000000000000000000000000000000000000000006044820152606401610531565b600780547fffffffffffffffffffffffff0000000000000000000000000000000000000000166001600160a01b0383169081179091556040517f726b590ef91a8c76ad05bbe91a57ef84605276528f49cd47d787f558a4e755b6905f90a250565b5f818152600260205260408120546001600160a01b031680610428576040517f7e27328900000000000000000000000000000000000000000000000000000000815260048101849052602401610531565b6105cd8383836001611102565b5f828152600260205260408120546001600160a01b0390811690831615610c5d57610c5d818486611255565b6001600160a01b03811615610c9757610c785f855f5f611102565b6001600160a01b0381165f90815260036020526040902080545f190190555b6001600160a01b03851615610cc5576001600160a01b0385165f908152600360205260409020805460010190555b5f8481526002602052604080822080547fffffffffffffffffffffffff0000000000000000000000000000000000000000166001600160a01b0389811691821790925591518793918516917fddf252ad1be2c89b69c2b068fc378daa952ba7f163c4a11628f55a4df523b3ef91a4949350505050565b6001600160a01b038216610d7d576040517f64a0ae920000000000000000000000000000000000000000000000000000000081525f6004820152602401610531565b5f610d8983835f610c31565b90506001600160a01b038116156105cd576040517f73c6ac6e0000000000000000000000000000000000000000000000000000000081525f6004820152602401610531565b6001600160a01b038216610e19576040517f5b08ba180000000000000000000000000000000000000000000000000000000081526001600160a01b0383166004820152602401610531565b6001600160a01b038381165f8181526005602090815260408083209487168084529482529182902080547fffffffffffffffffffffffffffffffffffffffffffffffffffffffffffffff001686151590811790915591519182527f17307eab39ab6107e8899845ad3d59bd9653f200f220920489ca2b5937696c31910160405180910390a3505050565b6001600160a01b0383163b1561105e576040517f150b7a020000000000000000000000000000000000000000000000000000000081526001600160a01b0384169063150b7a0290610efe908890889087908790600401611b67565b6020604051808303815f875af1925050508015610f56575060408051601f3d9081017fffffffffffffffffffffffffffffffffffffffffffffffffffffffffffffffe0168201909252610f5391810190611ba7565b60015b610fd6573d808015610f83576040519150601f19603f3d011682016040523d82523d5f602084013e610f88565b606091505b5080515f03610fce576040517f64a0ae920000000000000000000000000000000000000000000000000000000081526001600160a01b0385166004820152602401610531565b805181602001fd5b7fffffffff0000000000000000000000000000000000000000000000000000000081167f150b7a02000000000000000000000000000000000000000000000000000000001461105c576040517f64a0ae920000000000000000000000000000000000000000000000000000000081526001600160a01b0385166004820152602401610531565b505b5050505050565b60605f611071836112eb565b60010190505f8167ffffffffffffffff81111561109057611090611649565b6040519080825280601f01601f1916602001820160405280156110ba576020820181803683370190505b5090508181016020015b5f19017f3031323334353637383961626364656600000000000000000000000000000000600a86061a8153600a85049450846110c457509392505050565b808061111657506001600160a01b03821615155b1561120e575f61112584610bd3565b90506001600160a01b038316158015906111515750826001600160a01b0316816001600160a01b031614155b801561118257506001600160a01b038082165f9081526005602090815260408083209387168352929052205460ff16155b156111c4576040517fa9fbf51f0000000000000000000000000000000000000000000000000000000081526001600160a01b0384166004820152602401610531565b811561120c5783856001600160a01b0316826001600160a01b03167f8c5be1e5ebec7d5bd14f71427d1e84f3dd0314c0f7b2291e5b200ac8c7c3b92560405160405180910390a45b505b50505f90815260046020526040902080547fffffffffffffffffffffffff0000000000000000000000000000000000000000166001600160a01b0392909216919091179055565b6112608383836113cc565b6105cd576001600160a01b0383166112a7576040517f7e27328900000000000000000000000000000000000000000000000000000000815260048101829052602401610531565b6040517f177e802f0000000000000000000000000000000000000000000000000000000081526001600160a01b038316600482015260248101829052604401610531565b5f807a184f03e93ff9f4daa797ed6e38ed64bf6a1f0100000000000000008310611333577a184f03e93ff9f4daa797ed6e38ed64bf6a1f010000000000000000830492506040015b6d04ee2d6d415b85acef8100000000831061135f576d04ee2d6d415b85acef8100000000830492506020015b662386f26fc10000831061137d57662386f26fc10000830492506010015b6305f5e1008310611395576305f5e100830492506008015b61271083106113a957612710830492506004015b606483106113bb576064830492506002015b600a83106104285760010192915050565b5f6001600160a01b038316158015906114475750826001600160a01b0316846001600160a01b0316148061142457506001600160a01b038085165f9081526005602090815260408083209387168352929052205460ff165b8061144757505f828152600460205260409020546001600160a01b038481169116145b949350505050565b7fffffffff000000000000000000000000000000000000000000000000000000008116811461147c575f5ffd5b50565b5f6020828403121561148f575f5ffd5b813561149a8161144f565b9392505050565b5f81518084528060208401602086015e5f6020828601015260207fffffffffffffffffffffffffffffffffffffffffffffffffffffffffffffffe0601f83011685010191505092915050565b602081525f61149a60208301846114a1565b5f6020828403121561150f575f5ffd5b5035919050565b80356001600160a01b038116811461152c575f5ffd5b919050565b5f5f60408385031215611542575f5ffd5b61154b83611516565b946020939093013593505050565b5f5f5f6060848603121561156b575f5ffd5b61157484611516565b925061158260208501611516565b929592945050506040919091013590565b5f602082840312156115a3575f5ffd5b61149a82611516565b602081526001600160a01b0382511660208201526001600160a01b0360208301511660408201525f604083015160c060608401526115ed60e08401826114a1565b905060608401517fffffffffffffffffffffffffffffffffffffffffffffffffffffffffffffffe084830301608085015261162882826114a1565b915050608084015160a084015260a084015160c08401528091505092915050565b7f4e487b71000000000000000000000000000000000000000000000000000000005f52604160045260245ffd5b60405160c0810167ffffffffffffffff8111828210171561169957611699611649565b60405290565b5f5f67ffffffffffffffff8411156116b9576116b9611649565b506040517fffffffffffffffffffffffffffffffffffffffffffffffffffffffffffffffe0601f85018116603f0116810181811067ffffffffffffffff8211171561170657611706611649565b60405283815290508082840185101561171d575f5ffd5b838360208301375f60208583010152509392505050565b5f82601f830112611743575f5ffd5b61149a8383356020850161169f565b5f5f60408385031215611763575f5ffd5b61176c83611516565b9150602083013567ffffffffffffffff811115611787575f5ffd5b830160c08186031215611798575f5ffd5b6117a0611676565b6117a982611516565b81526117b760208301611516565b6020820152604082013567ffffffffffffffff8111156117d5575f5ffd5b6117e187828501611734565b604083015250606082013567ffffffffffffffff811115611800575f5ffd5b61180c87828501611734565b6060830152506080828101359082015260a09182013591810191909152919491935090915050565b602080825282518282018190525f918401906040840190835b8181101561186b57835183526020938401939092019160010161184d565b509095945050505050565b5f5f60408385031215611887575f5ffd5b61189083611516565b9150602083013580151581146118a4575f5ffd5b809150509250929050565b5f5f5f5f608085870312156118c2575f5ffd5b6118cb85611516565b93506118d960208601611516565b925060408501359150606085013567ffffffffffffffff8111156118fb575f5ffd5b8501601f8101871361190b575f5ffd5b61191a8782356020840161169f565b91505092959194509250565b5f5f60408385031215611937575f5ffd5b61194083611516565b915061194e60208401611516565b90509250929050565b600181811c9082168061196b57607f821691505b6020821081036119a2577f4e487b71000000000000000000000000000000000000000000000000000000005f52602260045260245ffd5b50919050565b5f5f1982036119de577f4e487b71000000000000000000000000000000000000000000000000000000005f52601160045260245ffd5b5060010190565b601f8211156105cd57805f5260205f20601f840160051c81016020851015611a0a5750805b601f840160051c820191505b8181101561105e575f8155600101611a16565b815167ffffffffffffffff811115611a4357611a43611649565b611a5781611a518454611957565b846119e5565b6020601f821160018114611a89575f8315611a725750848201515b5f19600385901b1c1916600184901b17845561105e565b5f848152602081207fffffffffffffffffffffffffffffffffffffffffffffffffffffffffffffffe08516915b82811015611ad65787850151825560209485019460019092019101611ab6565b5084821015611af357868401515f19600387901b60f8161c191681555b50505050600190811b01905550565b7f68747470733a2f2f6172656e61692e76657263656c2e6170702f6170692f626181527f6467652f0000000000000000000000000000000000000000000000000000000060208201525f82518060208501602485015e5f920160240191825250919050565b6001600160a01b03851681526001600160a01b0384166020820152826040820152608060608201525f611b9d60808301846114a1565b9695505050505050565b5f60208284031215611bb7575f5ffd5b815161149a8161144f56fea2646970667358221220362b13e09b4a9c4f6b20f4ec384d084777007e446bfcd8e74eddb6d0056b83d464736f6c634300081c0033","linkReferences":{}},"methodIdentifiers":{"approve(address,uint256)":"095ea7b3","balanceOf(address)":"70a08231","getApproved(uint256)":"081812fc","getBadge(uint256)":"8d838622","getBadgesByOwner(address)":"9df8cbe5","isApprovedForAll(address,address)":"e985e9c5","mint(address,(address,address,string,string,uint256,uint256))":"8e0cad41","minter()":"07546172","name()":"06fdde03","owner()":"8da5cb5b","ownerOf(uint256)":"6352211e","safeTransferFrom(address,address,uint256)":"42842e0e","safeTransferFrom(address,address,uint256,bytes)":"b88d4fde","setApprovalForAll(address,bool)":"a22cb465","setMinter(address)":"fca3b5aa","supportsInterface(bytes4)":"01ffc9a7","symbol()":"95d89b41","tokenURI(uint256)":"c87b56dd","totalSupply()":"18160ddd","transferFrom(address,address,uint256)":"23b872dd"},"id":35}