{"abi":[{"type":"constructor","inputs":[{"name":"_badge","type":"address","internalType":"address"},{"name":"_registry","type":"address","internalType":"address"}],"stateMutability":"nonpayable"},{"type":"receive","stateMutability":"payable"},{"type":"function","name":"CHALLENGE_EXPIRY","inputs":[],"outputs":[{"name":"","type":"uint256","internalType":"uint256"}],"stateMutability":"view"},{"type":"function","name":"MIN_CHALLENGE_FEE","inputs":[],"outputs":[{"name":"","type":"uint256","internalType":"uint256"}],"stateMutability":"view"},{"type":"function","name":"PLATFORM_FEE_BPS","inputs":[],"outputs":[{"name":"","type":"uint256","internalType":"uint256"}],"stateMutability":"view"},{"type":"function","name":"badge","inputs":[],"outputs":[{"name":"","type":"address","internalType":"contract GymBadge"}],"stateMutability":"view"},{"type":"function","name":"challenge","inputs":[{"name":"gymLeader","type":"address","internalType":"address"}],"outputs":[{"name":"","type":"uint256","internalType":"uint256"}],"stateMutability":"payable"},{"type":"function","name":"challengeFee","inputs":[{"name":"","type":"address","internalType":"address"}],"outputs":[{"name":"","type":"uint256","internalType":"uint256"}],"stateMutability":"view"},{"type":"function","name":"challenges","inputs":[{"name":"","type":"uint256","internalType":"uint256"}],"outputs":[{"name":"id","type":"uint256","internalType":"uint256"},{"name":"challenger","type":"address","internalType":"address"},{"name":"gymLeader","type":"address","internalType":"address"},{"name":"wager","type":"uint256","internalType":"uint256"},{"name":"createdAt","type":"uint256","internalType":"uint256"},{"name":"status","type":"uint8","internalType":"enum GymChallenge.ChallengeStatus"}],"stateMutability":"view"},{"type":"function","name":"getChallenge","inputs":[{"name":"id","type":"uint256","internalType":"uint256"}],"outputs":[{"name":"","type":"tuple","internalType":"struct GymChallenge.Challenge","components":[{"name":"id","type":"uint256","internalType":"uint256"},{"name":"challenger","type":"address","internalType":"address"},{"name":"gymLeader","type":"address","internalType":"address"},{"name":"wager","type":"uint256","internalType":"uint256"},{"name":"createdAt","type":"uint256","internalType":"uint256"},{"name":"status","type":"uint8","internalType":"enum GymChallenge.ChallengeStatus"}]}],"stateMutability":"view"},{"type":"function","name":"getChallengerHistory","inputs":[{"name":"challenger","type":"address","internalType":"address"}],"outputs":[{"name":"","type":"uint256[]","internalType":"uint256[]"}],"stateMutability":"view"},{"type":"function","name":"getGymChallenges","inputs":[{"name":"gymLeader","type":"address","internalType":"address"}],"outputs":[{"name":"","type":"uint256[]","internalType":"uint256[]"}],"stateMutability":"view"},{"type":"function","name":"getGymStats","inputs":[{"name":"gymLeader","type":"address","internalType":"address"}],"outputs":[{"name":"wins","type":"uint256","internalType":"uint256"},{"name":"losses","type":"uint256","internalType":"uint256"},{"name":"totalEarned","type":"uint256","internalType":"uint256"}],"stateMutability":"view"},{"type":"function","name":"gymStats","inputs":[{"name":"","type":"address","internalType":"address"}],"outputs":[{"name":"wins","type":"uint256","internalType":"uint256"},{"name":"losses","type":"uint256","internalType":"uint256"},{"name":"totalEarned","type":"uint256","internalType":"uint256"}],"stateMutability":"view"},{"type":"function","name":"nextChallengeId","inputs":[],"outputs":[{"name":"","type":"uint256","internalType":"uint256"}],"stateMutability":"view"},{"type":"function","name":"owner","inputs":[],"outputs":[{"name":"","type":"address","internalType":"address"}],"stateMutability":"view"},{"type":"function","name":"platformFees","inputs":[],"outputs":[{"name":"","type":"uint256","internalType":"uint256"}],"stateMutability":"view"},{"type":"function","name":"refundChallenge","inputs":[{"name":"challengeId","type":"uint256","internalType":"uint256"}],"outputs":[],"stateMutability":"nonpayable"},{"type":"function","name":"registry","inputs":[],"outputs":[{"name":"","type":"address","internalType":"address"}],"stateMutability":"view"},{"type":"function","name":"resolveChallenge","inputs":[{"name":"challengeId","type":"uint256","internalType":"uint256"},{"name":"challengerWon","type":"bool","internalType":"bool"}],"outputs":[],"stateMutability":"nonpayable"},{"type":"function","name":"setChallengeFee","inputs":[{"name":"fee","type":"uint256","internalType":"uint256"}],"outputs":[],"stateMutability":"nonpayable"},{"type":"function","name":"setChallengeFeeFor","inputs":[{"name":"gymLeader","type":"address","internalType":"address"},{"name":"fee","type":"uint256","internalType":"uint256"}],"outputs":[],"stateMutability":"nonpayable"},{"type":"function","name":"withdrawPlatformFees","inputs":[],"outputs":[],"stateMutability":"nonpayable"},{"type":"event","name":"ChallengeCreated","inputs":[{"name":"id","type":"uint256","indexed":true,"internalType":"uint256"},{"name":"challenger","type":"address","indexed":true,"internalType":"address"},{"name":"gymLeader","type":"address","indexed":true,"internalType":"address"},{"name":"wager","type":"uint256","indexed":false,"internalType":"uint256"}],"anonymous":false},{"type":"event","name":"ChallengeFeeSet","inputs":[{"name":"gymLeader","type":"address","indexed":true,"internalType":"address"},{"name":"fee","type":"uint256","indexed":false,"internalType":"uint256"}],"anonymous":false},{"type":"event","name":"ChallengeRefunded","inputs":[{"name":"id","type":"uint256","indexed":true,"internalType":"uint256"}],"anonymous":false},{"type":"event","name":"ChallengeResolved","inputs":[{"name":"id","type":"uint256","indexed":true,"internalType":"uint256"},{"name":"challengerWon","type":"bool","indexed":false,"internalType":"bool"}],"anonymous":false}],"bytecode":{"object":"0x6080604052348015600e575f5ffd5b50604051611c60380380611c60833981016040819052602b91607f565b5f80546001600160a01b03199081163317909155600180546001600160a01b039485169083161790556002805492909316911617905560ab565b80516001600160a01b0381168114607a575f5ffd5b919050565b5f5f60408385031215608f575f5ffd5b6096836065565b915060a2602084016065565b90509250929050565b611ba8806100b85f395ff3fe608060405260043610610165575f3560e01c80638da5cb5b116100c6578063c07659d91161007c578063e12fc1d711610057578063e12fc1d7146104d4578063eff670ee146104ea578063fc67aa5014610509575f5ffd5b8063c07659d914610486578063d0b7830b146104a5578063d149789f146104b9575f5ffd5b806391d768de116100ac57806391d768de146103d157806394a754e0146103fd57806395a57e951461041c575f5ffd5b80638da5cb5b146103295780638f1d377614610354575f5ffd5b8063539aa77f1161011b57806372fb97031161010157806372fb97031461029a57806379d69e9d146102ad5780637b103999146102d8575f5ffd5b8063539aa77f146102595780635ac2e5ed1461026e575f5ffd5b806321f50ba51161014b57806321f50ba5146101c457806335bf82f6146101e5578063397c620f14610204575f5ffd5b8063194a4e7e146101705780631bdd4b7414610198575f5ffd5b3661016c57005b5f5ffd5b34801561017b575f5ffd5b5061018560045481565b6040519081526020015b60405180910390f35b3480156101a3575f5ffd5b506101b76101b2366004611457565b61051e565b60405161018f91906114d4565b3480156101cf575f5ffd5b506101e36101de366004611457565b6105f1565b005b3480156101f0575f5ffd5b506101e36101ff366004611457565b610866565b34801561020f575f5ffd5b5061023e61021e366004611574565b60076020525f908152604090208054600182015460029092015490919083565b6040805193845260208401929092529082015260600161018f565b348015610264575f5ffd5b506101856107d081565b348015610279575f5ffd5b5061028d610288366004611574565b61090c565b60405161018f9190611594565b6101856102a8366004611574565b610982565b3480156102b8575f5ffd5b506101856102c7366004611574565b60066020525f908152604090205481565b3480156102e3575f5ffd5b506002546103049073ffffffffffffffffffffffffffffffffffffffff1681565b60405173ffffffffffffffffffffffffffffffffffffffff909116815260200161018f565b348015610334575f5ffd5b505f546103049073ffffffffffffffffffffffffffffffffffffffff1681565b34801561035f575f5ffd5b506103bf61036e366004611457565b600560208190525f9182526040909120805460018201546002830154600384015460048501549490950154929473ffffffffffffffffffffffffffffffffffffffff92831694919092169260ff1686565b60405161018f969594939291906115d6565b3480156103dc575f5ffd5b506001546103049073ffffffffffffffffffffffffffffffffffffffff1681565b348015610408575f5ffd5b506101e3610417366004611627565b610c4a565b348015610427575f5ffd5b5061023e610436366004611574565b73ffffffffffffffffffffffffffffffffffffffff165f90815260076020908152604091829020825160608101845281548082526001830154938201849052600290920154930183905292909190565b348015610491575f5ffd5b5061028d6104a0366004611574565b611154565b3480156104b0575f5ffd5b506101e36111c8565b3480156104c4575f5ffd5b506101856706f05b59d3b2000081565b3480156104df575f5ffd5b506101856201518081565b3480156104f5575f5ffd5b506101e3610504366004611659565b611334565b348015610514575f5ffd5b5061018560035481565b6105536040805160c0810182525f8082526020820181905291810182905260608101829052608081018290529060a082015290565b5f82815260056020818152604092839020835160c08101855281548152600182015473ffffffffffffffffffffffffffffffffffffffff908116938201939093526002820154909216938201939093526003808401546060830152600484015460808301529183015490929160a084019160ff16908111156105d7576105d761146e565b60038111156105e8576105e861146e565b90525092915050565b5f81815260056020526040812090600582015460ff1660038111156106185761061861146e565b1461066a5760405162461bcd60e51b815260206004820152600b60248201527f4e6f742070656e64696e6700000000000000000000000000000000000000000060448201526064015b60405180910390fd5b62015180816004015461067d91906116ae565b42116106cb5760405162461bcd60e51b815260206004820152600b60248201527f4e6f7420657870697265640000000000000000000000000000000000000000006044820152606401610661565b600181015473ffffffffffffffffffffffffffffffffffffffff1633148061070957505f5473ffffffffffffffffffffffffffffffffffffffff1633145b6107555760405162461bcd60e51b815260206004820152600e60248201527f4e6f7420617574686f72697a65640000000000000000000000000000000000006044820152606401610661565b6005810180547fffffffffffffffffffffffffffffffffffffffffffffffffffffffffffffff001660039081179091556001820154908201546040515f9273ffffffffffffffffffffffffffffffffffffffff1691908381818185875af1925050503d805f81146107e1576040519150601f19603f3d011682016040523d82523d5f602084013e6107e6565b606091505b50509050806108375760405162461bcd60e51b815260206004820152600d60248201527f526566756e64206661696c6564000000000000000000000000000000000000006044820152606401610661565b60405183907ffa1f4a62a42e98d9fe7147afcbebb3ac1fbe015de1fe4460ba65e8433e4ac9ae905f90a2505050565b6706f05b59d3b200008110156108be5760405162461bcd60e51b815260206004820152601160248201527f4665652062656c6f77206d696e696d756d0000000000000000000000000000006044820152606401610661565b335f8181526006602052604090819020839055517f6e00b541657fe713965093743f91b7686e41cbcbee9c8767e14cc6383db10dbd906109019084815260200190565b60405180910390a250565b73ffffffffffffffffffffffffffffffffffffffff81165f9081526009602090815260409182902080548351818402810184019094528084526060939283018282801561097657602002820191905f5260205f20905b815481526020019060010190808311610962575b50505050509050919050565b73ffffffffffffffffffffffffffffffffffffffff81165f90815260066020526040812054806109f45760405162461bcd60e51b815260206004820152601260248201527f47796d20686173206e6f206665652073657400000000000000000000000000006044820152606401610661565b80341015610a445760405162461bcd60e51b815260206004820152601060248201527f496e73756666696369656e7420666565000000000000000000000000000000006044820152606401610661565b73ffffffffffffffffffffffffffffffffffffffff83163303610aa95760405162461bcd60e51b815260206004820152601560248201527f43616e6e6f74206368616c6c656e67652073656c6600000000000000000000006044820152606401610661565b600380545f9182610ab9836116c7565b909155506040805160c08101825282815233602080830191825273ffffffffffffffffffffffffffffffffffffffff898116848601908152346060860190815242608087019081525f60a088018181528a8252600596879052989020875181559551600180880180549287167fffffffffffffffffffffffff0000000000000000000000000000000000000000938416179055935160028801805491909616911617909355516003808601919091559151600485015594519183018054969750939592949193927fffffffffffffffffffffffffffffffffffffffffffffffffffffffffffffff001691908490811115610bb557610bb561146e565b0217905550505073ffffffffffffffffffffffffffffffffffffffff84165f81815260086020908152604080832080546001808201835591855283852001869055338085526009845282852080549283018155855293839020018590555134815284917fd2f7931a802085b3d0234d4c320ce7ee0041da96678ce2bf5c93e8d3d7e65f52910160405180910390a49392505050565b5f5473ffffffffffffffffffffffffffffffffffffffff163314610cb05760405162461bcd60e51b815260206004820152600960248201527f4e6f74206f776e657200000000000000000000000000000000000000000000006044820152606401610661565b5f82815260056020526040812090600582015460ff166003811115610cd757610cd761146e565b14610d245760405162461bcd60e51b815260206004820152600b60248201527f4e6f742070656e64696e670000000000000000000000000000000000000000006044820152606401610661565b5f6127106107d08360030154610d3a91906116fe565b610d449190611715565b90505f818360030154610d57919061174d565b90508160045f828254610d6a91906116ae565b90915550508315610fb8576005830180547fffffffffffffffffffffffffffffffffffffffffffffffffffffffffffffff00166001908117909155600284015473ffffffffffffffffffffffffffffffffffffffff165f908152600760205260408120909101805491610ddc836116c7565b909155505060408051602080820183525f808352835191820190935291825260025490919073ffffffffffffffffffffffffffffffffffffffff1615610edd5760028054908601546040517f1e1d828600000000000000000000000000000000000000000000000000000000815273ffffffffffffffffffffffffffffffffffffffff9182166004820152911690631e1d8286906024015f60405180830381865afa925050508015610ecd57506040513d5f823e601f3d9081017fffffffffffffffffffffffffffffffffffffffffffffffffffffffffffffffe0168201604052610eca919081019061194a565b60015b15610edd57509395509193505050505b60018054908601546040805160c081018252600289015473ffffffffffffffffffffffffffffffffffffffff90811682529283166020820181905281830187905260608201869052608082018c90524260a083015291517f8e0cad410000000000000000000000000000000000000000000000000000000081529290931692638e0cad4192610f70929190600401611a86565b6020604051808303815f875af1158015610f8c573d5f5f3e3d5ffd5b505050506040513d601f19601f82011682018060405250810190610fb09190611b5b565b505050611020565b6005830180547fffffffffffffffffffffffffffffffffffffffffffffffffffffffffffffff0016600290811790915583015473ffffffffffffffffffffffffffffffffffffffff165f90815260076020526040812080549161101a836116c7565b91905055505b60028084015473ffffffffffffffffffffffffffffffffffffffff165f908152600760205260408120909101805483929061105c9084906116ae565b909155505060028301546040515f9173ffffffffffffffffffffffffffffffffffffffff169083908381818185875af1925050503d805f81146110ba576040519150601f19603f3d011682016040523d82523d5f602084013e6110bf565b606091505b50509050806111105760405162461bcd60e51b815260206004820152601660248201527f4c6561646572207472616e73666572206661696c6564000000000000000000006044820152606401610661565b857f1c13286911ea61ab9e07cf462b69b2c12954593a03380a618afdf62d227021ae86604051611144911515815260200190565b60405180910390a2505050505050565b73ffffffffffffffffffffffffffffffffffffffff81165f9081526008602090815260409182902080548351818402810184019094528084526060939283018282801561097657602002820191905f5260205f20908154815260200190600101908083116109625750505050509050919050565b5f5473ffffffffffffffffffffffffffffffffffffffff16331461122e5760405162461bcd60e51b815260206004820152600960248201527f4e6f74206f776e657200000000000000000000000000000000000000000000006044820152606401610661565b6004548061127e5760405162461bcd60e51b815260206004820152600760248201527f4e6f2066656573000000000000000000000000000000000000000000000000006044820152606401610661565b5f6004819055805460405173ffffffffffffffffffffffffffffffffffffffff9091169083908381818185875af1925050503d805f81146112da576040519150601f19603f3d011682016040523d82523d5f602084013e6112df565b606091505b50509050806113305760405162461bcd60e51b815260206004820152600f60248201527f5769746864726177206661696c656400000000000000000000000000000000006044820152606401610661565b5050565b5f5473ffffffffffffffffffffffffffffffffffffffff16331461139a5760405162461bcd60e51b815260206004820152600960248201527f4e6f74206f776e657200000000000000000000000000000000000000000000006044820152606401610661565b6706f05b59d3b200008110156113f25760405162461bcd60e51b815260206004820152601160248201527f4665652062656c6f77206d696e696d756d0000000000000000000000000000006044820152606401610661565b73ffffffffffffffffffffffffffffffffffffffff82165f8181526006602052604090819020839055517f6e00b541657fe713965093743f91b7686e41cbcbee9c8767e14cc6383db10dbd9061144b9084815260200190565b60405180910390a25050565b5f60208284031215611467575f5ffd5b5035919050565b7f4e487b71000000000000000000000000000000000000000000000000000000005f52602160045260245ffd5b600481106114d0577f4e487b71000000000000000000000000000000000000000000000000000000005f52602160045260245ffd5b9052565b5f60c0820190508251825273ffffffffffffffffffffffffffffffffffffffff602084015116602083015273ffffffffffffffffffffffffffffffffffffffff6040840151166040830152606083015160608301526080830151608083015260a083015161154560a084018261149b565b5092915050565b803573ffffffffffffffffffffffffffffffffffffffff8116811461156f575f5ffd5b919050565b5f60208284031215611584575f5ffd5b61158d8261154c565b9392505050565b602080825282518282018190525f918401906040840190835b818110156115cb5783518352602093840193909201916001016115ad565b509095945050505050565b86815273ffffffffffffffffffffffffffffffffffffffff868116602083015285166040820152606081018490526080810183905260c0810161161c60a083018461149b565b979650505050505050565b5f5f60408385031215611638575f5ffd5b823591506020830135801515811461164e575f5ffd5b809150509250929050565b5f5f6040838503121561166a575f5ffd5b6116738361154c565b946020939093013593505050565b7f4e487b71000000000000000000000000000000000000000000000000000000005f52601160045260245ffd5b808201808211156116c1576116c1611681565b92915050565b5f7fffffffffffffffffffffffffffffffffffffffffffffffffffffffffffffffff82036116f7576116f7611681565b5060010190565b80820281158282048414176116c1576116c1611681565b5f82611748577f4e487b71000000000000000000000000000000000000000000000000000000005f52601260045260245ffd5b500490565b818103818111156116c1576116c1611681565b7f4e487b71000000000000000000000000000000000000000000000000000000005f52604160045260245ffd5b6040516060810167ffffffffffffffff811182821017156117b0576117b0611760565b60405290565b5f82601f8301126117c5575f5ffd5b815167ffffffffffffffff8111156117df576117df611760565b604051601f82017fffffffffffffffffffffffffffffffffffffffffffffffffffffffffffffffe0908116603f0116810167ffffffffffffffff8111828210171561182c5761182c611760565b604052818152838201602001851015611843575f5ffd5b8160208501602083015e5f918101602001919091529392505050565b5f82601f83011261186e575f5ffd5b61187661178d565b806060840185811115611887575f5ffd5b845b818110156115cb57805167ffffffffffffffff8111156118a7575f5ffd5b8601606081890312156118b8575f5ffd5b6118c061178d565b815167ffffffffffffffff8111156118d6575f5ffd5b6118e28a8285016117b6565b825250602082015167ffffffffffffffff8111156118fe575f5ffd5b61190a8a8285016117b6565b602083015250604082015167ffffffffffffffff811115611929575f5ffd5b6119358a8285016117b6565b60408301525085525060209384019301611889565b5f5f5f5f5f5f60c0878903121561195f575f5ffd5b865167ffffffffffffffff811115611975575f5ffd5b61198189828a016117b6565b965050602087015167ffffffffffffffff81111561199d575f5ffd5b6119a989828a016117b6565b955050604087015167ffffffffffffffff8111156119c5575f5ffd5b6119d189828a016117b6565b945050606087015167ffffffffffffffff8111156119ed575f5ffd5b6119f989828a016117b6565b935050608087015167ffffffffffffffff811115611a15575f5ffd5b611a2189828a0161185f565b9250505f60a08801519050809150509295509295509295565b5f81518084528060208401602086015e5f6020828601015260207fffffffffffffffffffffffffffffffffffffffffffffffffffffffffffffffe0601f83011685010191505092915050565b73ffffffffffffffffffffffffffffffffffffffff831681526040602082015273ffffffffffffffffffffffffffffffffffffffff825116604082015273ffffffffffffffffffffffffffffffffffffffff60208301511660608201525f604083015160c06080840152611afe610100840182611a3a565b905060608401517fffffffffffffffffffffffffffffffffffffffffffffffffffffffffffffffc08483030160a0850152611b398282611a3a565b915050608084015160c084015260a084015160e0840152809150509392505050565b5f60208284031215611b6b575f5ffd5b505191905056fea264697066735822122030ac673cd4424b9db6610ef8fe59e6b101316ee8cdbaaa931c217dd9239fa56d64736f6c634300081c0033","linkReferences":{}},"methodIdentifiers":{"CHALLENGE_EXPIRY()":"e12fc1d7","MIN_CHALLENGE_FEE()":"d149789f","PLATFORM_FEE_BPS()":"539aa77f","badge()":"91d768de","challenge(address)":"72fb9703","challengeFee(address)":"79d69e9d","challenges(uint256)":"8f1d3776","getChallenge(uint256)":"1bdd4b74","getChallengerHistory(address)":"5ac2e5ed","getGymChallenges(address)":"c07659d9","getGymStats(address)":"95a57e95","gymStats(address)":"397c620f","nextChallengeId()":"fc67aa50","owner()":"8da5cb5b","platformFees()":"194a4e7e","refundChallenge(uint256)":"21f50ba5","registry()":"7b103999","resolveChallenge(uint256,bool)":"94a754e0","setChallengeFee(uint256)":"35bf82f6","setChallengeFeeFor(address,uint256)":"eff670ee","withdrawPlatformFees()":"d0b7830b"},"id":36}